:1000000000000120750300005D0300005F03000095
:1000100061030000630300006503000000000000AE
:100020000000000000000000000000006703000066
:1000300069030000000000006B0300006D03000076
:100040006F0300006F0300001D1900006F03000024
:100050006F0300006F0300006F0300006F030000D8
:100060006F0300006F0300006F0300006F030000C8
:100070006F0300006F0300006F0300006F030000B8
:100080006F0300006F0300006F0300006F030000A8
:100090006F0300006F0300006F0300006F03000098
:1000A0006F0300006F0300006F0300006F03000088
:1000B0006F0300006F03000000000000000000005C
:1000C0006F0300006F0300006F0300006F03000068
:1000D0006F0300000D1800006F0300000000000017
:1000E0000000000000000000000000000000000010
:1000F0000000000000000000000000000000000000
:1001000000000000000000000000000000000000EF
:1001100000000000000000000000000000000000DF
:1001200000000000000000000000000000000000CF
:1001300000000000000000000000000000000000BF
:1001400000000000000000000000000000000000AF
:10015000000000000000000000000000000000009F
:10016000000000000000000000000000000000008F
:10017000000000000000000000000000000000007F
:10018000000000000000000000000000000000006F
:10019000000000000000000000000000000000005F
:1001A000000000000000000000000000000000004F
:1001B000000000000000000000000000000000003F
:1001C000000000000000000000000000000000002F
:1001D000000000000000000000000000000000001F
:1001E000000000000000000000000000000000000F
:1001F00000000000000000000000000000000000FF
:10020000354936480A1A02D0072291438D463449AF
:1002100034480A1A06D00722914381F30988022242
:1002200082F3148830483149314A00F044F83148AB
:100230003149324A00F03FF831483249324A00F041
:100240003AF832483249334A00F035F832483349F7
:10025000334A00F030F833483349344A00F02BF881
:1002600033483449344A00F026F8344834490022EF
:1002700000F02CF833483449002200F027F83348C6
:100280003349091A082902DB002202604160314A21
:1002900090471F481F49884205D00268043003B4C4
:1002A000904703BCF7E700208646EC46002000217B
:1002B000294A9047FEE7884207D0521A05D00378B2
:1002C00001300B700131013AF9D17047884202D0F8
:1002D00002700130FAE770470000012000E00020C2
:1002E0000000012000000120242E0000000000205A
:1002F00034000020D0030000D0030000B429000027
:10030000242E00000000002000000020002A000031
:10031000002A0000002A0000002A0000002A000035
:10032000002A0000002A0000002A0000222E0000FF
:10033000582E00003400002034000020340000203B
:10034000B4260020B4260020B4260020B4260020C5
:10035000B44600209D03000091230000FEE7FEE765
:10036000FEE7FEE7FEE7FEE7FEE7FEE7FEE7FEE765
:1003700000F002B8FFF7FCBF0F484FF007018843B9
:1003800085460E4880470E48016841F470010160BF
:10039000BFF34F8FBFF36F8FFFF732BF09480A4992
:1003A0000A4A884207D0521A05D0037801300B70F0
:1003B0000131013AF9D1704700000120C925000040
:1003C00088ED00E0002A000000000020000000206E
:1003D000F0B595B01D46164608460C4601F02AF8C1
:1003E0001A9B0D93CDE9086500252B46082205A927
:1003F00020460A958DF82C500C9501F037F8079B94
:100400000293069B03939DF814308DF8115003F06E
:100410000302012A1DD1BDF81420059DC3F3C203B8
:10042000C2F383168DF81030B20008230EA92046BF
:1004300001F01CF8C5F3952508AB0093324602ABDA
:100440000EA9284600F094FB204600F0F7FF15B0F7
:10045000F0BD022AF8D1BDF81650C3F3C203C5F3AC
:1004600089158DF810300827082D2E4628BF08263C
:100470003B4632460EA9204600F0F8FFAD1B08AB04
:1004800002AA31460EA8374400F0D6FB002DEBD16E
:10049000DAE70000014B01221A7070477500002056
:1004A0007047000070B50E4D06460FCD88B06C4603
:1004B0000FC495E80F00002E84E80F00094A0A488F
:1004C0004FF0060308BF00226946009301F016F8BA
:1004D00008B100F074FC054B1E7008B070BD00BF81
:1004E000002A0000950400000000002034000020D5
:1004F00007B5044B0093044A4023FFF769FF03B09C
:100500005DF804FB0D0500003500002038B50D48EE
:100510000D4C0E4D002323700378EB5CD2B263B117
:10052000043001F083FE08B100F049FC084B1A7852
:1005300012B12378002BFBD038BD0C3001F024FC25
:10054000F1E700BF00000020750000202C0600200D
:100550003400002008B50848084A0378D35C3BB152
:10056000043001F0C7FDBDE808400020FFF79ABF46
:100570000C3001F093FBF6E7000000202C06002071
:100580000120FFF78FBF000008B5FFF7F9FF04480F
:10059000042100F06BFA034B01225A7108BD00BF21
:1005A000DC29000014000020037813F0040216D0A8
:1005B00003F00303012B03D0022B09D00120704765
:1005C0000A6800880232C0F3831002440A60F5E72B
:1005D0000B684288023303EB92130B60EEE7104680
:1005E000704700002DE9F04FDFF810A10F4685B0ED
:1005F0000446861C0020154600F02CFCDAF8042086
:100600003A60DAF8083003F580739B1A0AF21C4747
:100610000AF583690AF21448B34219D30020002D69
:1006200068D004F00F039B0143F0050363F30F0050
:10063000DAF80430DAB2033233444AF822000020F8
:10064000CAF8043000F008FC012005B0BDE8F08FC6
:100650000121384600F025FC484600F03AFC4046AF
:1006600000F037FCDAF808000090C0B203300AEB63
:1006700080006946FFF798FF009B30BBDAB20AEBB7
:100680008202D16801919A1C0133DBB20AEB830329
:100690000092D3F80CB001F00303012B22D0022BFF
:1006A00015D08346404600F017FC10B1009BCAF8F5
:1006B00008305946384600F0F4FBDAF80830DAF82A
:1006C000042003F580739B1AA6E7D8B2CEE7BDF8E5
:1006D0000630C3F3891303334FEA1B4B02EB93033A
:1006E0000093DFE7BDF80430C3F383134FEA1B4BDD
:1006F0001344F5E7A40544F0060099E748010020FB
:10070000064B074810B500221A7000F04CFE044654
:1007100010B9044800F0B4FE204610BD4801002086
:10072000EC290000542A000030B50A4C71B10A4A85
:100730000A49121BD20800239A4201D1002030BD81
:1007400031F82350854202D00133F5E7034654F8CF
:100750003300F4E7B4290000DC2900000000002089
:10076000094B013903EBC000032909D8DFE801F088
:100770000A020406042070470079704740797047E8
:100780000020704702207047B4290000034BD3E9D2
:100790000130C31A58425841704700BF4801002039
:1007A0002DE9FF41FFF7F2FF0546002840F0E98000
:1007B000754CC4F81804BFF34F8FA3680093DBB2E5
:1007C000033304EB83006946FFF7EEFE009B18B18C
:1007D000D4F81824002A5AD0DAB2991C013304EB59
:1007E0008202DBB204EB8303D268DB68029302F07F
:1007F0000303022B0192009154D1BDF806306348E7
:10080000C3F38917502F3E4628BF502606F1080132
:1008100066F38F13C1F30901ADF8063000F0DBFD7C
:100820000546002800F0988000F004FE002308220E
:1008300001A9284600F010FE0099CB43DBB201333A
:10084000C9B20331B6EB830F4FEA830204EB810197
:1008500025D95FFA82F80823A6EB0806284600F09F
:10086000FBFDF6B208F10803494903F0FC033246E8
:10087000284600F0F1FD009B033703EB9707009734
:10088000D4F81834002B43D1D4F8106453E06268D4
:100890009A4294D8A260284604B0BDE8F0810823AB
:1008A0003246E5E7012B57D1BDF804303748C3F392
:1008B0008311062928BF062161F38913023101F053
:1008C0000F018900ADF8043000F085FD05460028D1
:1008D00042D000F0AFFD0023082201A9284600F015
:1008E000BBFD0026BDF80420C2F38312B30096427C
:1008F00003F10803C4D200994A1CC9B20331009223
:1009000004EB81010422284600F0A6FD0136E9E748
:10091000284600F093FDFFF739FF80F00100C5B2D3
:10092000B9E7F3685B7923B1336829461B68304621
:100930009847F3681E68002EF3D1284600F07EFD2C
:10094000304600F087FAD4F818340BB9009BA36046
:10095000002000F081FADEE7D4F8104454B90D4BC2
:100960000D480E49C01AC008000440F0020000F013
:100970005DF8D0E7236820469B689847E3681C68C9
:10098000ECE7002587E700BF48010020EC290000C4
:1009900054010020B4290000D42900003D2A0000A1
:1009A0002DE9F34704460E46924601A90122184656
:1009B0009946FFF717FE1B4F10B3019D4FF000083B
:1009C000AA1CC84508EB020123D11748002100F0FA
:1009D00045FA80F31000000440EA1440E4006B1C68
:1009E00004F03804DBB2EDB244F0010407EB8303FA
:1009F000033544EA881444EA8624D86047F8254041
:100A00003B781BB1FFF7CCFE0028FBD102B0BDE85C
:100A1000F087C9B207EB81015AF82830CB6008F1A2
:100A20000108CEE7480100206405002000231A4693
:100A3000FFF7B6BF07B50123019201AAFFF7B0FF88
:100A400003B05DF804FB7FB5CDE90023089B02935A
:100A5000099B03930A9B04930B9B05936A46062309
:100A6000FFF79EFF07B05DF804FB000030B50F4CA8
:100A7000D4F8102403460020114631B9D968087112
:100A80004AB9C4F810340A6030BDC9680D7985428E
:100A900006D00968F1E7D26814680C601360F3E7C8
:100AA00001300A28E8D14FF0FF30EDE7480100207F
:100AB00030B5C38885B004460D4633B1144A009260
:100AC0001449154A284600F061FA217A05291DD0FB
:100AD000637A4BB1A088FFF743FE104B104953F8DF
:100AE0002020284600F052FA227A0E4BA08853F8B4
:100AF000222003920021FFF717FE039A0A490346BA
:100B0000284605B0BDE8304000F040BA05B030BD21
:100B1000802A0000682A0000602A0000F42A0000F1
:100B2000852A0000182B0000882A000007B503461C
:100B30000846197A052911D05B7A2BB1094A0A496E
:100B4000019000F023FA01980849019000F01EFA84
:100B5000019803B05DF804EB00F00DBA002AF8D05C
:100B6000F2E700BF802A0000852A00007D2A0000ED
:100B70002DE9F04385B01F460C9D002395F80C909D
:100B80002B7306460C46904629463846FFF790FFE1
:100B9000B8F1060F09D8DFE808F00412181F28334F
:100BA00040003146284600F0F1F900222946384637
:100BB000FFF7BCFF85F80C9005B0BDE8F083226814
:100BC0003146284600F0E2F9EFE7D4E90023314648
:100BD000284600F0DBF9E8E7A36800933146D4E942
:100BE0000023284600F0D2F9DFE7E3680193A36809
:100BF00000933146D4E90023284600F0C7F9D4E732
:100C000023690293E3680193A36800933146D4E912
:100C10000023284600F0BAF9C7E763690393236904
:100C20000293E3680193A36800933146D4E900235B
:100C3000284600F0ABF9B8E708292DE9F74F8046C0
:100C40000E4617461C463CD8002593F80C901D73A1
:100C500019461046FFF72CFFDFF888A0DFF888B0B0
:100C6000AE4231D918F805205946204600F08EF9D9
:100C70000135082DF4D11949194DDFF870A020462F
:100C800000F084F94FF0000B5E4522D918F80B20D4
:100C90007E2A05D81046019201F02EFE019A00B975
:100CA0002E225146204600F071F90BF1010BBBF1E9
:100CB000080FE9D1012221463846FFF737FF84F8B3
:100CC0000C9003B0BDE8F08F5146204600F05EF96D
:100CD000CEE72946204600F059F9E6E79C2A0000B5
:100CE0009A2A0000982A0000922A00009E2A0000FA
:100CF000044B1A5C012393404FF0A042C2F80C351C
:100D0000704700BF2C2B0000044B1A5C012393405A
:100D10004FF0A042C2F80835704700BF2C2B0000EE
:100D200008B50020FFF7F0FF0120FFF7EDFF0220DC
:100D3000FFF7EAFFBDE808400320FFF7E5BF08B56D
:100D40000020FFF7D5FF0120FFF7D2FF0220FFF7B9
:100D5000CFFFBDE808400320FFF7CABF074A4FF0A6
:100D6000A041105CD1F804350122824022EA030040
:100D70001340C1F80805C1F80C3570472C2B000052
:100D8000C20708B501460CD54FF0A0430322C3F8B3
:100D90004427C3F84827C3F84C27C3F85027FFF768
:100DA000BFFF8B070AD54FF0A0430C22C3F83427AE
:100DB000C3F83827C3F83C27C3F8402708BD1FB540
:100DC0000021039001AA44F20100CDE9011101F0D4
:100DD000D1FA05B05DF804FB82B001238DF807302D
:100DE0009DF80730114B1860596044F201018842A8
:100DF0009A6012D044F20201884206D1DA60DA68C1
:100E000012689A61DA685268DA6172B69DF8073042
:100E1000002BFBD162B602B070471A611A69926862
:100E20005A611A6912689A611A69ECE70006002093
:100E300072B6024A1368013313607047200600201F
:100E4000034A1368013B136003B962B6704700BFE1
:100E500020060020FFF7ECBFFFF7F2BF10B50346F6
:100E600053E8000F0A4643E8002494F0000FF7D13E
:100E700010BD10B5034653E8002F42EA010043E8D5
:100E8000000494F0000FF6D110BD10B5034653E8EE
:100E9000000F00EA010243E8002494F0000FF6D1AD
:100EA00010BD10B5034653E8002F02EB010043E8E4
:100EB000000494F0000FF6D110BD10B5034653E8BE
:100EC000002FA2EB010043E8000494F0000FF6D1DC
:100ED00010BD0121FFF7CDBF0021FFF7D6BF10B530
:100EE00090B1D0E9012301689B1ADBB20A60013B93
:100EF000DBB2FF2B026802D10020107110BD116817
:100F00004C1C14600B70F2E70E20F7E738B504466E
:100F10000020FFF79FFF226863681168994213D988
:100F2000481E106011F8013CE568218A01FB035559
:100F3000A36811791B1ADBB2994200D21371002009
:100F4000FFF78AFF284638BD0025F8E738B5054683
:100F500000200C46FFF77EFF2A681368591C1160B9
:100F6000E968641A298AB4FBF1F41C70BDE83840C2
:100F70000020FFF771BF826810B504462AB14369AB
:100F80000168006998470023A36010BD0EB403B543
:100F9000039921B104AB01AA019300F077F802B0E4
:100FA0005DF804EB03B070470A2938B504460D46D6
:100FB00002D10D21FFF7F8FFA3682268591CA16038
:100FC000D554D4E901329A4204D32046BDE83840D2
:100FD000FFF7D1BF38BD00002DE9F84F9846DDE995
:100FE0000A43154682460F460A464FF00109AA42B7
:100FF0000FD2C14538BFC14613F0010B01D16CB906
:1010000000240126B8F1010F1BD908F1FF386E4307
:10101000F8E709F10109B2FBF5F2E8E79B070ED505
:10102000B8F1000F0CBF30262026A145E9D2013CC3
:1010300031465046FFF7B8FF002CF6D1E0E72026F6
:10104000F3E7B7FBF6F39D42E1D9DFF83C80B7FB4D
:10105000F6F3504618F8031006FB1377FFF7A4FFCA
:101060003346AB42B6FBF5F6F1D2BBF1000F02D02E
:101070000CB1A14501D3BDE8F88F20215046013CB9
:10108000FFF792FFF4E700BF302B00002DE9F74F88
:10109000054617468846002900F03E8118F8011BD6
:1010A00049B92B7B002B00F03781284603B0BDE8FF
:1010B000F04FFFF760BF252940F0B780002698F871
:1010C00000302D2B424608F1010823D0302B24D0CC
:1010D0002B2B25D000242A2B02F1010123D13B68C0
:1010E0001A1D1B683A601C440A4613782E2B26D121
:1010F00001324FF0000A104610F8011BA1F1300C2C
:10110000BCF1090F1DD80A2303FB0A13A3F1300A0F
:101110000246F0E746F00106D1E746F00206CEE7C8
:1011200046F00406CBE711F8013CA3F13000092892
:10113000DBD80A2202FB0434303C0A46CBE74FF0EE
:10114000000A12F8011B01F0FB0068289046F8D055
:10115000782909D86F290CD8632962D022D825298B
:1011600063D0582900F0888098F80030002B95D182
:1011700097E770390829F7D801A353F821F000BF89
:10118000F3120000691100006911000089120000CB
:101190006911000067120000691100006911000068
:1011A00079120000642901D06929DDD13A68D2F8AA
:1011B0000090111D89EAE9723960A2EBE9724FF0E3
:1011C000010B092A35DCD34538BFD3462CB1B9F120
:1011D000000F01DB720700D5013CB30702D5BAF15D
:1011E000000F03D0F00701D44CBB0024B9F1000F6D
:1011F0002DDAC9F100092D212846FFF7D5FE06F0AA
:101200000302022A04D1BAF1000F01D11CBB002451
:10121000CDE9004653460A2249462846FFF7DCFE40
:10122000A2E73B681A1D19783A602846FFF7BCFE12
:101230009AE70A230BF1010BB2FBF3F2C1E7A345D6
:10124000D4D220212846013CFFF7AEFECCE771073F
:10125000D5D52B21D0E7A345DAD230212846013C51
:10126000FFF7A2FED2E73968CDE900460A1D3A60D1
:1012700053460A220968D0E739680A1D3A60CDE969
:10128000004653461022F5E73B681A1D3A6016F0F7
:101290000106D3F8009024D1B9F1000F03D04846DD
:1012A00001F058FB0646B4421DD809F1FF3919F880
:1012B000011F00293FF458AF2846FFF775FEF6E7F7
:1012C00028460136FFF770FE19F806100029F7D1FD
:1012D000A642BFF449AF20212846013CFFF764FE37
:1012E000F6E70026F0E720212846013CFFF75CFEE8
:1012F000D9E73B681A1D3A60302128461C68FFF781
:1013000053FE78212846FFF74FFE00220823CDE93F
:1013100000322146102280E703B0BDE8F08F00BF05
:101320002DE9F84FB0F806A04579D2F800B09DF845
:1013300028900AFB05F5043D88460BEB0301A94202
:1013400003F1040488BFA5EB030BB4FBFAF60746D0
:101350000AFB1644C2F800B04EB9AAEB04055D457D
:1013600028BF5D46BBF1000F04D1BDE8F88F3F6890
:10137000013EF1E7043408EB06003C442A46B9F18B
:10138000000F0DD02146ABEB050B01F0BAFADA45A0
:101390002E443F6855464FF0000428BF5D46E1E704
:1013A00001462046EFE7FFF79ABDF8B546790146BA
:1013B000721E0546002393422D6803D30024A642E3
:1013C00002D8F8BD0133F6E70F682846FFF7BEFDE7
:1013D00001343946F3E72DE9F843068ACD1C074668
:1013E000FFF794FD043E35440446B5FBF6F5F0B135
:1013F0004FF48073EDB28380C680013D0760814663
:101400004FF00008A84512D23846FFF77FFD064688
:1014100048B163790133637108F10108C9F800002C
:1014200007608146EEE72046FFF7BFFF34462046BF
:10143000BDE8F88301210430FFF733BD10B5012169
:1014400004460430FFF739FDC0B220B92046BDE89C
:101450001040FFF7AABF10BD1FB5039200220092F3
:1014600003AAFFF75DFF05B05DF804FB1FB503920B
:101470000122009203AAFFF753FF05B05DF804FBB9
:10148000836800225A60C3E904229A60DA601A6015
:10149000704700001FB503788DF800304368019352
:1014A00083688DF80830C368054A0393054B684686
:1014B00053F8213052F82110984705B05DF804FB2D
:1014C00024060020280600201FB503788DF8003080
:1014D0004368019383688DF80830C368054A039315
:1014E000054B684653F8213052F82110984705B053
:1014F0005DF804FB2406002028060020F0B5194BF7
:1015000090F800C091F81DE043F82C20164B1646C9
:101510000A6943F82C20154B03F80CE00C460746EB
:101520000FCC89B06D460FC594E80F0085E80F0019
:10153000CDF810C0BEF1000F09D0002E0C4A69464C
:1015400008BF3246381D00F013FD09B0F0BD002E73
:10155000084A694608BF324607F10C0000F0EAFA73
:10156000F3E700BF28060020240600202C060020F8
:1015700095140000C91400002DE9F041454D2B7968
:10158000002B40F08580877990F8078090F808E07C
:10159000467A90F80AC0C468027C77B9012E03D15C
:1015A000012A0AD1072069E0022E06D1082A04D8B0
:1015B00040F25513D340DB07F4D4374BC3F804751E
:1015C000C3F82485C3F820E5C3F81C65C3F828C513
:1015D000C3F81825002C53D1C3F8104590F800E04B
:1015E00090F801C04FF0A0430EF5E0760CF5E072E4
:1015F000002F4BD1032443F8264043F8224086783D
:10160000FF2E1FBF4FF0A04306F5E072032443F8FE
:101610002240C27808BF4FF0FF36FF2A1FBF02F5F5
:10162000E0744FF0A043032743F82470037908BF08
:101630004FF0FF32FF2B1FBF03F5E0774FF0A044C0
:101640004FF0000844F82780134C08BF4FF0FF33D9
:10165000C4F864E5C4F868C5C4F86065C4F87025CA
:10166000C4F86C3543790D4A29605B01DBB282F81E
:1016700025332023536001232B710020BDE8F08126
:101680000122C3F81445C3F81025A7E70024B2E7E8
:101690000820F3E7300600200050024000E100E09F
:1016A0007FB5354A1379012B0E4660D1036823B10B
:1016B00003F06041B1F1005F5BD1416821B101F0FD
:1016C0006041B1F1005F54D15179003B18BF012353
:1016D00063F3000151714368D680191E537918BF16
:1016E000012123F01E0343EA4103537103C8234B36
:1016F00083E80300D2E90254214B0020C2E9040030
:10170000C3F85065C3F838552D1A18BF0125C3F822
:101710000855C3F84045241A18BF0124C3F80C45E6
:1017200002210124C3F800451171C3F80401D3F864
:10173000041103910399C3F81401D3F81411029111
:101740000299C3F80801D3F8081101910199517960
:1017500001FA04F2090102F0020201F020010A4339
:1017600042F00402C3F804231C6004B070BD0820DA
:10177000FBE71020F9E700BF300600203806002004
:1017800000500240154B5A79D20630B522D5026876
:1017900022B102F06041B1F1005F1DD1416821B179
:1017A00001F06044B4F1005F16D15C79A50744BF35
:1017B0000B4DC5F84015E10744BF0949C1F838256C
:1017C00003C8084A82E803005A796FF304125A7179
:1017D000002030BD0820FCE71020FAE7300600208A
:1017E0000050024038060020064B5A796FF304126D
:1017F0005A71054B2222C3F8082301225A609A63CA
:10180000DA6370473006002000500240F0B53F4BCD
:101810003F4CD3F8142185B08AB10022C3F81421BB
:10182000D3F814310093009B637943F0080303F06D
:101830001202122A637104BF43F020036371334B19
:10184000D3F804218AB10022C3F80421D3F804316B
:101850000193019B637943F0040303F01102112A01
:10186000637104BF43F020036371284BD3F8082150
:10187000BAB10025C3F80851D3F808210292029AA0
:1018800024480422C3F808232946C3F800552368D6
:10189000984723682048294698470123237105B0BB
:1018A000F0BD637903F00F020F2A08D0D80701D4E6
:1018B000190704D462799207F1D45B07EFD56279F6
:1018C000276802F0F30312F020020BD023F030035C
:1018D00043F010036371012100203B4605B0BDE8D1
:1018E000F04018470B4D95E8030002AE86E8030070
:1018F00015E9030043F0100385E80300C4E9022260
:10190000637101213046B847C9E700BF005002406B
:10191000300600204006002038060020014B1B68DE
:10192000184700BF4806002038B50B4B98420C46BC
:1019300001D0002038BD0020FFF78CFA074B1D793D
:1019400015B901221C601A710020FFF785FA002DDD
:10195000EFD01120EEE700BF002000404806002035
:10196000034B984201BF034B00221A601A71704763
:1019700000200040480600200023435082B0435816
:101980000193019B02B070470A4610B54FF48E7167
:10199000FFF7F2FF136A9168C95C136A013313629F
:1019A000C0F81C1510BD8B690A4610B54FF4847140
:1019B00023B9FFF7E1FFD0F8183510BDFFF7DCFFC2
:1019C000536AD168D0F81805C854536A013353627A
:1019D000F3E700001FB501238DF80030044BCDE97B
:1019E0000110D3E900126846904705B05DF804FB8A
:1019F0005006002030B54D4DD5F804339A0585B01A
:101A000051D5D5F82431002B4DD04FF49271284692
:101A1000FFF7B2FF4FF40173C5F80833444B93F856
:101A200029200AB901226A60404902228DF800206B
:101A3000D1F88024C1F8802403929A690292DA686E
:101A400001920022C3E906226846D3E900129047BA
:101A50003648D0F81C315BB1354A5169136A994256
:101A60004DD992F82830002B49D11146FFF78CFF51
:101A70002E48D0F84431002B56D04FF4A271FFF716
:101A80007BFF2B4B93F829200AB1012202609A694F
:101A9000002A49D0586AD96800229A6105B0BDE889
:101AA0003040FFF797BFD5F804335B07D0D5D5F8A2
:101AB0000831002BCCD01E4C1C482146FFF773FF89
:101AC000636AA2699A42C3D1E369E1684BB1A36139
:101AD0002369E3600023606AE3616362FFF77AFFD2
:101AE000B6E794F829300BB901236B600F4B4FF424
:101AF0000172C3F808230023606AA361EEE70B4874
:101B00004FF48E71FFF738FF5369002BB0D0516945
:101B10000291002391688DF800300191536168466D
:101B2000D2E900139847A3E705B030BD002000407C
:101B3000500600202DE9F843534D90F804802C23E3
:101B400003FB0853064693F82A300C469146002BB7
:101B500040F096804D490068FFF7E6FE07460028F2
:101B600040F0908022683068511C0BD04FF0A041AB
:101B700001239340C1F8083502F5E0734FF0030CE0
:101B800041F823C061684B1C1FBF01F5E0734FF0A3
:101B9000A04C4FF0000E4CF823E0A369C0F82435A8
:101BA00094F814C0637DBCF1010F4CEA0303C0F844
:101BB0006C35C0F81415C0F80C251DD1A268531C53
:101BC0001FBF02F5E0734FF0A0414FF0000C41F849
:101BD00023C0E368591C0BD04FF0A04C0121994061
:101BE000CCF8081503F5E0714FF0030E4CF821E036
:101BF000C0F80835C0F810252C2202FB08F2AB18FB
:101C0000C3F804902369AB50B9F1000F20D04FF412
:101C10008E71247FFFF7B0FE4FF4A2713068FFF79A
:101C2000ABFE32681A4BC2F80433130B42F307328F
:101C30006101002AC9B21EDB1648841884F800131B
:101C40000121520903F01F0301FA03F340F8223087
:101C500033680422C3F800252C2303FB0853002219
:101C6000C3E9062283F829205A61012283F82A2039
:101C70003846BDE8F883084A03F00F03D154E7E77C
:101C80000827F5E71127F3E750060020F5190000B3
:101C90008000020000E100E014ED00E0F8B5036808
:101CA0000579304C0022C3F800252C2202FB0542A6
:101CB0005268A2B12C4AC3F808231A0B43F3073326
:101CC000002B0CDB02F01F015B0901228A4020334C
:101CD000264941F82320BFF34F8FBFF36F8F006871
:101CE000D0F80C65D0F81415D0F80835D0F81025C8
:101CF0004FF0FF37BE42C0F8147518BF06F5E07606
:101D0000C0F80C75C0F80875C0F810751EBF4FF00C
:101D1000A0474FF0020C47F826C04E1C1FBF4FF0E3
:101D2000A04601F5E071022746F82170511C1FBF43
:101D30004FF0A04102F5E072022641F822605A1CE1
:101D40001FBF03F5E0734FF0A042022142F82310B9
:101D5000FFF706FE2C2303FB0544002384F82A30FA
:101D60006360F8BD500600208402020000E100E03C
:101D70000279044B2C2101FB02335869003818BF4B
:101D800001207047500600202DE9F84F064690F8D4
:101D9000048089469246FFF7EBFF044600283CD1B9
:101DA000204F2C2508FB057B4FF48E71CBF814A037
:101DB000CBF80890CBF820008BF828003068FFF7AC
:101DC000DBFD3068012383605946FFF7DDFDDBF85A
:101DD00004305D461BBB3068DBF814402B6A9C4224
:101DE00011D83368D3F81C21002AFBD00122DA6015
:101DF00000202C2303FB087700237B61BDE8F88FCC
:101E000095F828303BB9D0F81C31002BF8D0594652
:101E1000FFF7BAFDE2E70F20EBE71120EEE72046DF
:101E2000ECE700BF500600200023435082B0435827
:101E30000193019B02B070471FB501238DF800305C
:101E4000044BCDE90110D3E900126846904705B074
:101E50005DF804FB7C0600207FB5434AD2F824617C
:101E6000002E60D010464FF49271FFF7DDFF022381
:101E70008DF80030D2F88034C2F880340393D2F861
:101E80003C350293394BDA6801920022C3E90622FD
:101E90006846D3E9001290473348D0F8443173B113
:101EA0004FF4A271FFF7C0FF304B9A693AB100229C
:101EB000C3E90622D968D0F83C05FFF7BDFF2A48E0
:101EC000D0F82031ABB14FF49071FFF7ADFF012393
:101ED000C360264B5A6962B1D0F84C1502910022BA
:101EE00099688DF8002001915A616846D3E9001283
:101EF00090471D48D0F858319BB14FF4AC71FFF7B3
:101F000093FF1A4B5A6962B1D0F84C150291002226
:101F100099688DF8002001915A616846D3E9001252
:101F2000904704B070BDD2F81031002BB4D04FF4FC
:101F300088711046FFF778FF0C4BD2F83C05996981
:101F40008842A9D1DC69D96864B1D2F8005225F081
:101F50002005C2F800521A699C61DA60DE61FFF761
:101F60006BFF99E79C61FAE7002000407C060020A7
:101F70002DE9F8435A4E90F80480242303FB0863AC
:101F8000044693F820300D469146002B40F0A38084
:101F900054490068FFF7C8FC0746002840F09D80C0
:101FA0002A682068511C0BD04FF0A04101239340B8
:101FB000C1F8083502F5E0734FF0030C41F823C077
:101FC00069684B1C1FBF01F5E0734FF0A04C4FF048
:101FD000000E4CF823E0AB69C0F8243595F814C026
:101FE0006B7DBCF1010F4CEA0303C0F86C35C0F8FF
:101FF0000C25C0F814151DD1AA68531C1FBF02F58B
:10200000E0734FF0A0414FF0000C41F823C0EB68A3
:10201000591C0BD04FF0A04C01219940CCF8081569
:1020200003F5E0714FF0030E4CF821E0C0F80835DD
:10203000C0F81025242202FB08F2B318C3F804905C
:102040002B69B350B9F1000F2FD04FF488712A7F5C
:10205000FFF7EAFE20684FF49071FFF7E5FE206875
:102060004FF49271FFF7E0FE20684FF4A271FFF782
:10207000DBFE4FF4AC712068FFF7D6FE23681A49E7
:10208000C3F80413190B43F307335201002BD2B2E8
:102090001CDB1648C51885F8002301225B0901F0F6
:1020A0001F0102FA01F140F8231023680822C3F847
:1020B0000025242303FB08660023C6E90633736169
:1020C000012386F820303846BDE8F883084B01F03C
:1020D0000F015A54E9E70827F5E71127F3E700BF96
:1020E0007C060020591E00001003420000E100E0C1
:1020F00014ED00E0F8B5444C0579242303FB0543B7
:1021000002465B680068ABB1404BC0F8083340F34F
:102110000733002B4FEA10310CDB01F01F065B097F
:102120000121B14020333A4E46F82310BFF34F8FC0
:10213000BFF36F8FD0F8003223F02003C0F80032D5
:10214000242303FB05439B692BB14FF4A271FFF7D6
:102150006BFE012343604FF4AC71FFF765FE012372
:10216000C360242303FB0543D0F858110029FBD09A
:10217000996919B1D0F844110029F5D00023C0F8AD
:1021800000351368D3F80C75D3F81465D3F8082517
:10219000D3F810154FF0FF3C6745C3F80CC518BFC6
:1021A00007F5E077C3F814C5C3F808C5C3F810C530
:1021B0001EBF4FF0A0434FF0020C43F827C0771C1E
:1021C0001FBF4FF0A04306F5E076022743F82670C4
:1021D0004E1C1FBF01F5E0714FF0A043022643F8EB
:1021E0002160531C1FBF4FF0A04302F5E072022193
:1021F00043F82210FFF7B4FB242303FB054400231C
:1022000084F820306360F8BD7C0600201003420093
:1022100000E100E00279044B242101FB02335869FC
:10222000003818BF012070477C06002001F0604391
:10223000B3F1005F2DE9F0470646884692463BD150
:1022400090F80490FFF7E6FF0446002836D11D4FB2
:102250003068242505FB09754FF49071C5F814A06A
:10226000C5F80880FFF7E0FD4FF4AC713068FFF768
:10227000DBFD33686A69A968C3F84415C3F84825CB
:1022800001229A606A68DAB9D3F82021D3F858019C
:102290001AB90028F8D00F2007E00028FBD101224E
:1022A000DA60D3F85821002AFBD0242303FB0977F6
:1022B00000237B61BDE8F0871020FBE71120F9E7E0
:1022C0002046F7E77C06002070B5114B114A1B78B9
:1022D0001178114C0B4308D1022111700F494CF6B3
:1022E000FE2222800A800E4A1370218800220B46AB
:1022F000851C5E1E01339BB220F8226025F8223037
:102300000132B2F5007FF4D101F50071218070BD7A
:10231000A0060020AA260020A8260020A62600202D
:10232000A4260020CB0737B5044610D503680D4D11
:102330007BB90D4A92E803006B4683E80300184618
:10234000FFF720FA08B1FEF73AFD084B2B6003B007
:1023500030BD074A1360FFF715FA08B1FEF72FFDED
:102360006368F3E7B0260020A82B0000A41E00201D
:10237000AC2600201FB5CDE902100192FEF7DFFC6C
:10238000DDE90121039805B05DF804EBFEF724BDFB
:102390002DE9F04F2DED028B01208FB0FEF7F0FC00
:1023A00000210846FEF7ACF908B1FEF708FDFEF77C
:1023B000EBF8644C644B654E6549E41AE408240468
:1023C00044F00303184608EE103AFEF72FFB0FCE39
:1023D00009AD0FC533682B601A238DF828301B23F5
:1023E0008DF827304FF040630C9303238DF8343081
:1023F0005849002309A88DF82E30FFF7BDF808B121
:10240000FEF7DDFC544EDFF87481DFF87491534819
:1024100000253570C8F80050C9F80050FFF754FF88
:102420004F4A92E8030007AB83E803002A464FF4C3
:1024300000711846FFF734F908B1FEF7C0FC494FA8
:1024400020BF40BF20BFD8F8000020B1FFF73CFFFD
:102450000023C8F80030D9F800307BB1327801325F
:10246000D2B23270404A1578F5B10020FEF74CFC2C
:102470000120FEF773FC0023C9F800303378132BDA
:10248000DED9FFF7B1F9FEF78BF90028FBD1374E03
:10249000FEF746FC4FF4FA7546F001064FF47A4019
:1024A000B047013DFAD1ADE731493A7809889C1C23
:1024B000AA4628460594AB46059C33F820C034F85C
:1024C00020E0B2B15CEA0E0413D1013AD2B201307D
:1024D000B0F5007FF0D13A70BAF1000F01D0244B73
:1024E00019803278234918EE100AFEF7A3FA012565
:1024F00016E001F1FF3A1FFA8AFA0131D44589B298
:1025000019D01B4B32781980CDE90210CDE900EAD1
:10251000194987F800B018EE100A6346FEF793FADF
:10252000114B85F001051D70002D9ED10120FEF795
:10253000EBFB28469DE78E45E3D14FF0010A0022D0
:10254000C5E700BFD4290000B4290000B02B00006B
:10255000532B000025230000A0060020A416002015
:10256000C42B0000AA260020A4260020D02B0000A7
:10257000A62600209D2B0000712B0000B026002015
:10258000AC2600204FF08053D3F83001421C04BF2A
:102590004FF0704393F8E00F831F58425841704743
:1025A0004FF0704393F8E02F062A09D1D3F8E83FA3
:1025B000C3F30313033B032B02D8024AD05C7047DA
:1025C00000207047DE2B000008B5FFF7DBFF40B1AD
:1025D0004FF080538F4AD3F82433C3F30423C2F857
:1025E0004035FFF7DDFF10B18B4B8C4A5A67FFF780
:1025F000C9FF48B14FF080534FF08042D3F84432C6
:10260000C3F34233C2F83C35FFF7CAFF30B1844A06
:10261000D2F8FC3023F08073C2F8FC30FFF7B2FF31
:1026200040B14FF080430022C3F80C21C3F81021C1
:10263000C3F83825FFF7B4FF20B14FF080430322E1
:10264000C3F8A025FFF7ACFF60B1764B0522C3F8B5
:1026500010260122C3F888260022C3F818263F223C
:10266000C3F814264FF08053D3F83021511C09BF12
:102670004FF07043D3F8343193F8E02FD3F8E83FAC
:1026800008BFC3F30313062A4DD1033B032B03D822
:10269000654AD35C002B46D04FF08052634BD2F892
:1026A0000414C3F82015D2F80814C3F82415D2F87E
:1026B0000C14C3F82815D2F81014C3F82C15D2F84E
:1026C0001414C3F83015D2F81814C3F83415D2F81E
:1026D0001C14C3F84015D2F82014C3F84415D2F8DE
:1026E0002414C3F84815D2F82814C3F84C15D2F8AE
:1026F0002C14C3F85015D2F83014C3F85415D2F87E
:102700003414C3F86015D2F83814C3F86415D2F83D
:102710003C14C3F86815D2F84014C3F86C15D2F80D
:102720004424C3F87025FFF72DFF48B14FF08053C4
:102730004FF08042D3F8583203F04F03C2F8E43E22
:10274000FFF720FF48B14FF08043D3F80024D207B1
:1027500044BF6FF00102C3F800244FF08053D3F858
:102760003021062A0ED1D3F83431033B032B02D893
:102770002F4AD35C33B12F4AD2F83C3743F48063FD
:10278000C2F83C37264AD2F8883043F47003C2F8C6
:102790008830BFF34F8FBFF36F8F4FF01023D3F804
:1027A0000022002A03DBD3F80432002B2EDA224B5E
:1027B0000122C3F80425D3F80024002AFBD04FF0EF
:1027C00010221521C2F80012D3F80024002AFBD0F1
:1027D0004FF010231522C3F80422174BD3F800241E
:1027E000002AFBD00022C3F80425D3F80024002AD5
:1027F000FBD0BFF34F8F0A49104BCA6802F4E06266
:102800001343CB60BFF34F8F00BFFDE70C4B0D4A66
:102810001A6008BD0030014000C007400DF0ADBA9D
:1028200000ED00E000500040D62B000000C000404A
:10283000DA2B00000010004000E001400400FA051F
:102840001C0000200090D0037F2805D8034B185CA3
:10285000034B5B5C1840704700207047F02B000072
:10286000702C0000A0F16103192B98BF203870472D
:10287000A0F14103192B98BF203070477F2805D85D
:10288000034B185C034B5B5C18407047002070479B
:10289000F02B0000702C0000A0F16103192B98BFF1
:1028A00020387047A0F14103192B98BF20307047A2
:1028B0007F299ABF017001206FF02E0070475AB136
:1028C0000A787F2A0AD800B1026000211960596095
:1028D000501A18BF01207047002070476FF02E007B
:1028E0007047000008B5034B5B689B681B689847FE
:1028F00008BD00BF2000002008B50921FFF7F2FF46
:1029000008BD844640EA010313F0030F18D1844642
:10291000202A0BD32DE9F007B1E8F807A0E8F80763
:10292000A2F12002202AF7D2BDE8F007042A07D33B
:1029300051F8043B40F8043BA2F10402042AF7D208
:10294000002A05D011F8013B00F8013B013AF9D10A
:102950006046704700F1010110F0030F11D010F82C
:10296000012B002A23D010F0030F0AD010F8012BFE
:10297000002A1CD010F0030F03D010F8012B002AFE
:1029800015D02DE970004FF001324FF0803350F830
:10299000044BA4EB020525EA04051D4000D1F6E72F
:1029A000A0F1040070BC10F8012B002AFBD1A0EBB1
:0429B000010070476B
:1029B400402B000000000000442B00000000000039
:1029C400482B0000000000004D2B00000000000018
:0829D4004E2A0000000003037D
:1029DC00202A0000000000002C2A00001400002017
:1029EC0078000020400100204801002080000020D9
:0429FC0018000000BF
:102A0000FFFFFFFFFFFFFFFFFFFFFFFFFFFFFFFFD6
:102A100000000000000000000000D60106010000D8
:102A2000F104000055050000A104000075617274F6
:102A30005F6C6F675F6261636B656E6400426163C8
:102A40006B656E647320666C757368656400617095
:102A500070000000680500207F000000E8050020ED
:102A60001B5B313B33316D0025734C6F6773206402
:102A7000726F70706564202825642925730D0A0023
:102A80001B5B306D002573003C25733E2025733A97
:102A90002000202530327800202020007C00256393
:102AA000001B5B313B33306D001B5B313B33326DC0
:102AB000001B5B313B33336D001B5B313B33346DAB
:102AC000001B5B313B33356D001B5B313B33366D97
:102AD000001B5B313B33376D006572726F7200779C
:102AE00061726E696E6700696E666F00646562751B
:102AF00067000000802A0000A12A0000602A000070
:102B0000A92A0000B12A0000B92A0000C12A000049
:102B1000C92A0000D12A000000000000D92A0000C4
:102B2000DF2A0000E72A0000EC2A0000111213142B
:102B300030313233343536373839414243444546F3
:102B4000493253005052530055415254005541529E
:102B5000544500493253206C6F6F706261636B2083
:102B60006578616D706C6520737461727465642E34
:102B7000002533753A20253034782F253034782CD1
:102B80002065787065637465643A20253034782F49
:102B9000253034782028693A202575290025337599
:102BA0003A204F4B00000000A40E0020A41E00207D
:102BB0001F1EFF1D1C060000000101000000002078
:102BC000D0000000A4060020A41600200000000091
:102BD0000338FDD87047000001010000000101002A
:102BE0000000000043000000504F5349580000000F
:102BF000202020202020202020682828282820206D
:102C000020202020202020202020202020202020C4
:102C1000481010101010101010101010101010107C
:102C2000848484848484848484841010101010101C
:102C30001081818181818101010101010101010175
:102C40000101010101010101010101101010101029
:102C50001082828282828202020202020202020246
:102C600002020202020202020202021010101020EE
:102C700000070320041702010857104080000000DD
:102C8000E42B0000E82C0000FC2D000053756E00C2
:102C90004D6F6E005475650057656400546875008B
:102CA0004672690053617400000000004A616E00C2
:102CB000466562004D617200417072004D6179009D
:102CC0004A756E004A756C00417567005365700067
:102CD0004F6374004E6F760044656300000000008F
:102CE000414D00504D000000202E00001C2E000021
:102CF0001C2E00001C2E00001C2E00001C2E0000AC
:102D00001C2E00001C2E00001C2E00001C2E00009B
:102D1000FFFFFFFFFFFFFFFFFFFFFFFFFFFF0000C1
:102D20005C2D00008C2C0000982D0000AC2C0000C5
:102D3000E02C0000402D0000F02D00004C2D000084
:102D4000256D2F25642F25790000000025612025A1
:102D500062202565202554202559000053756E6496
:102D60006179004D6F6E64617900547565736461BB
:102D700079005765646E6573646179005468757293
:102D80007364617900467269646179005361747596
:102D900072646179000000004A616E7561727900A9
:102DA0004665627275617279004D617263680041B7
:102DB0007072696C004D6179004A756E65004A75E4
:102DC0006C79004175677573740053657074656D37
:102DD000626572004F63746F626572004E6F766554
:102DE0006D62657200446563656D62657200000026
:102DF00025483A254D3A2553000000004928000097
:102E000065280000712800007D2800009928000036
:102E1000A5280000B1280000BF2800000000000025
:022E20002E0082
:102E240000000000002000400000000000200040DE
:102E34000000000000000000FF0000000090D0032C
:102E4400802C0000802C0000802C0000802C0000CE
:042E5400802C0000CE
:040000030000037581
:00000001FF
