:1000000000000120750300005D0300005F03000095
:1000100061030000630300006503000000000000AE
:100020000000000000000000000000006703000066
:1000300069030000000000006B0300006D03000076
:100040006F0300006F030000CD3400006F03000059
:100050006F0300006F0300006F0300006F030000D8
:100060006F0300006F0300006F0300006F030000C8
:100070006F0300006F0300006F0300006F030000B8
:100080006F0300006F0300006F0300006F030000A8
:100090006F0300006F0300006F0300006F03000098
:1000A0006F0300006F0300006F0300006F03000088
:1000B0006F0300006F03000000000000000000005C
:1000C0006F0300006F0300006F0300006F03000068
:1000D0006F030000D93200006F0300000000000031
:1000E0000000000000000000000000000000000010
:1000F0000000000000000000000000000000000000
:1001000000000000000000000000000000000000EF
:1001100000000000000000000000000000000000DF
:1001200000000000000000000000000000000000CF
:1001300000000000000000000000000000000000BF
:1001400000000000000000000000000000000000AF
:10015000000000000000000000000000000000009F
:10016000000000000000000000000000000000008F
:10017000000000000000000000000000000000007F
:10018000000000000000000000000000000000006F
:10019000000000000000000000000000000000005F
:1001A000000000000000000000000000000000004F
:1001B000000000000000000000000000000000003F
:1001C000000000000000000000000000000000002F
:1001D000000000000000000000000000000000001F
:1001E000000000000000000000000000000000000F
:1001F00000000000000000000000000000000000FF
:10020000354936480A1A02D0072291438D463449AF
:1002100034480A1A06D00722914381F30988022242
:1002200082F3148830483149314A00F044F83148AB
:100230003149324A00F03FF831483249324A00F041
:100240003AF832483249334A00F035F832483349F7
:10025000334A00F030F833483349344A00F02BF881
:1002600033483449344A00F026F8344834490022EF
:1002700000F02CF833483449002200F027F83348C6
:100280003349091A082902DB002202604160314A21
:1002900090471F481F49884205D00268043003B4C4
:1002A000904703BCF7E700208646EC46002000217B
:1002B000294A9047FEE7884207D0521A05D00378B2
:1002C00001300B700131013AF9D17047884202D0F8
:1002D00002700130FAE770470000012000E00020C2
:1002E0000000012000000120006400000000002048
:1002F00070000020D0030000D0030000B4590000BB
:10030000006400000000002000000020005A0000EF
:10031000005A0000005A0000005A0000005A000075
:10032000005A0000005A0000005A0000FE6300005E
:100330007064000070000020700000207000002039
:10034000DC0E0020DC0E0020DC0E0020DC0E002085
:10035000DC2E00209D030000514F0000FEE7FEE769
:10036000FEE7FEE7FEE7FEE7FEE7FEE7FEE7FEE765
:1003700000F002B8FFF7FCBF0F484FF007018843B9
:1003800085460E4880470E48016841F470010160BF
:10039000BFF34F8FBFF36F8FFFF732BF09480A4992
:1003A0000A4A884207D0521A05D0037801300B70F0
:1003B0000131013AF9D17047000001207155000068
:1003C00088ED00E0005A000000000020000000203E
:1003D00000B5A1B00590049103920293049802F035
:1003E00015F9039B1593029B169300231793002383
:1003F0008DF8603000231993229B1A9300231F93DA
:100400000FA91F9B0822049802F0DAF908231F9312
:10041000119B1293BDF84030ADF84C30BDF842301E
:10042000ADF84E3000238DF851309DF83C3003F08C
:100430000303DBB2012B26D10F9BC3F395231C933F
:100440009DF83C30C3F3C203DBB28DF85030BDF8E9
:100450003C30C3F38313DBB21B931B9B9A0009A9A7
:100460001F9B049802F0ACF91B9B9B001F9A13443E
:100470001F9312AA09A915AB009313461B9A1C9847
:1004800000F05CFF2FE09DF83C3003F00303DBB28B
:10049000022B28D1BDF83E30C3F389139BB21E93C3
:1004A0009DF83C30C3F3C203DBB28DF850301E9B85
:1004B000082B28BF08231D9307A91F9B1D9A04988A
:1004C00002F07EF91F9A1D9B13441F931E9A1D9BD9
:1004D000D31A1E9315AB12AA07A81D9900F0D0FFDE
:1004E0001E9B002BE3D1049802F09FF800BF21B0BF
:1004F0005DF804FB00B583B00190019B1B781A46A0
:100500000C4B9B5C002B05D0019B0433184604F078
:1005100089FA0BE0019B1B781A46064B9B5C002B6B
:1005200004D1019B0C33184603F01AFC00BF03B042
:100530005DF804FB6806002000B587B003900291C7
:1005400013468DF8073000230593039B1B781A464A
:10055000114B9B5C002B09D0039B04339DF80720B3
:100560000299184604F0C0FA05900FE0039B1B782F
:100570001A46094B9B5C002B08D1039B0C339DF85A
:1005800007200299184603F063FC0590059B184666
:1005900007B05DF804FB00BF6806002082B0019040
:1005A0000091034B01221A7000BF02B0704700BFD8
:1005B000B000002030B58DB003468DF807301A4BDF
:1005C00002AC1D460FCD0FC495E80F0084E80F0064
:1005D000062302934FF0FF3303934FF0FF3304934E
:1005E0004FF0FF3305934FF0EB7308939DF80730FE
:1005F000002B01D00D4A00E0002202AB19460C4846
:1006000002F06CF90B900B9B0A930A9B002B04D011
:10061000084A43210A9801F079F9074A9DF8073002
:10062000137000BF0DB030BD6C5A00009D05000076
:1006300000000020005A0000B100002000B583B087
:1006400001238DF807309DF807301846FFF7B2FFF9
:1006500000BF03B05DF804FB00B589B003900291C0
:100660000192019B8DF81F30124B00221A709DF8E9
:100670001F301A4602991048FFF75EFF0690069B4E
:100680000593059B002B04D00C4A5321059801F0DB
:100690003DF900BF0A4B1B78002B07D0054B1B7898
:1006A000DBB283F00103DBB2002BF3D100BF09B052
:1006B0005DF804FBB000002000000020005A00009C
:1006C000B100002000B585B003900291054B009366
:1006D0004023054A02990398FFF77AFE00BF05B050
:1006E0005DF804FB590600007000002082B0019004
:1006F00000BF02B07047000000B583B0019005480C
:10070000FFF7F8FE0020FFF755FF00BF03B05DF8CC
:1007100004FB00BF0000002082B00190019BDB6859
:1007200001225A7100BF02B07047000000B583B0CB
:100730004FF0FF330193FFF781FF0421084800F0D9
:1007400037FD0190019B002B03DA0649482001F098
:100750004EF90348FFF7E0FF00BF03B05DF804FB6C
:10076000DC590000AC5A000000B583B00190009144
:10077000019B1B681B6800990198984700BF03B054
:100780005DF804FB00B583B00190019B1B689B687A
:100790000198984700BF03B05DF804FB82B0019058
:1007A0000B468DF80330019BDB689DF803201A711E
:1007B00000BF02B0704782B00190019BDB681B79DB
:1007C000184602B0704782B00190019BDB685B79EC
:1007D000184602B07047000000B585B00190009146
:1007E0000C4B00221A700C4801F074FE0390039B1E
:1007F000002B01D0039B08E0084802F001F8084AEA
:10080000084BD31ADB0802930023184605B05DF8A5
:1008100004FB00BF1C020020EC5900001C5B000020
:10082000DC590000B4590000024A034BD31ADB081C
:1008300018467047DC590000B459000000B587B075
:1008400001900B468DF803309DF80330002B1FD02C
:10085000FFF7EAFF04900023059313E0059B9B003C
:100860000E4A13440393039B1B881A46019B1B6883
:100870009A4204D1019B059A1A60002309E0059B66
:1008800001330593059A049B9A42E7D3052300E0C0
:100890000023184607B05DF804FB00BF00000020ED
:1008A00000B585B001900B468DF803309DF803200C
:1008B00001AB11461846FFF7C1FF0346002B07D1D5
:1008C000019BDB00054A13440393039B1B6800E074
:1008D0000023184605B05DF804FB00BFB4590000C2
:1008E00084B001900B468DF80330019BDB00174A62
:1008F000134402939DF80330013B032B1CD801A243
:1009000052F823F0150900001D0900002509000018
:100910002F09000002238DF80F3011E004238DF819
:100920000F300DE0029B1B798DF80F3008E0029B21
:100930005B798DF80F3003E000238DF80F3000BF96
:100940009DF80F30184604B0704700BFB45900003E
:1009500084B00190009100238DF80F30019B1B782B
:1009600003F00403DBB2002B24D0019B1B78C3F3FC
:100970000103DBB2012B02D0022B0CD017E0009B4D
:100980001B68019A1288C2F38312D2B213449A1CD4
:10099000009B1A600BE0009B1B68019A5288C2F30F
:1009A000891292B213449A1C009B1A6000BF012363
:1009B0008DF80F309DF80F30184604B070470000D6
:1009C00000B58BB00023ADF826303E4801F09CF80E
:1009D0003D4801F099F83D4B9B6804933C4B1B68E4
:1009E0000693049A069B134002339B00374A134434
:1009F0000433089304AB19460898FFF7A9FF034690
:100A0000002B09D0049A069B134002339B002F4A07
:100A1000134404330893EDE700BF0023079311E06C
:100A2000049B5A1C0492069A1340079A920001A94B
:100A30000A44264902339B000B445B681360079B02
:100A400001330793079B012BEAD99DF80430C3F3C8
:100A50000103DBB2012B10D0022B1CD1BDF80A30F0
:100A6000ADF82630BDF80630C3F389139BB20333CB
:100A70009A08049B1344049313E0BDF80A30ADF8C0
:100A80002630BDF80430C3F38313DBB21A46049B4F
:100A90001344049305E00F494FF4C27000F0A7FF20
:100AA00000BF094801F03CF80590059B002B02D0DF
:100AB000049B064A9360BDF8263018460BB05DF8DB
:100AC00004FB00BF34060020300600201C0200207A
:100AD0001C0000202C5B000000B585B000210748F9
:100AE00000F09BFF0390039B0293029B83F3100390
:100AF0000193019B184605B05DF804FB3806002001
:100B000000B589B00390029101920093039B1B0CE6
:100B10000793FFF7E1FF0690FFF786FE0246079B6B
:100B2000934204D3214940F2A91000F060FF069BD4
:100B30001904009B5A1C0A9B1340079A0A431C493C
:100B400002339B000B445A60009A0A9B1340023305
:100B50009B00174A134404330593039B03F00703D8
:100B6000D9B2059A137861F3C5031370019B03F0A2
:100B70000F03D9B2059A138861F389131380029B7E
:100B8000C3F31501059A136861F39F231360059A57
:100B90001378012161F301031370059A13786FF341
:100BA0008203137000BF09B05DF804FB2C5B0000EA
:100BB0001C02002000B58BB00390029113468DF803
:100BC0000730039B0233089301238DF81F30002068
:100BD00000F0C6FE3E4B5A68029B1A603D4B1A68F5
:100BE0003B4B99683A4B5B68CB1A1344013309932A
:100BF00014E00121384800F057FFFFF7E1FE0590AF
:100C00000599354800F050FF324B1A68304B99680F
:100C10002F4B5B68CB1A134401330993089A099B45
:100C20009A42E6D89DF81F30002B48D00023049349
:100C30009DF80730002B17D09DF81030012262F389
:100C400001038DF810309DF8103043F004038DF847
:100C50001030039B03F00F03DAB2BDF8103062F3DB
:100C60008913ADF8103016E09DF81030022262F3BF
:100C700001038DF810309DF8103043F004038DF817
:100C80001030039BC3F309039AB2BDF8123062F32C
:100C90008F13ADF812300E4B5A680E4B1B68134081
:100CA00002339B000A4A134404330693049A069BBA
:100CB0001A60074B5A68089B1344054A536000208A
:100CC00000F062FE9DF81F3018460BB05DF804FB83
:100CD0001C0200201C0000203806002000B58BB04C
:100CE00005900491039202931F4B1B68079306AB78
:100CF000012219460298FFF75DFF0346002B24D01E
:100D0000069B023309930023089311E0089B9B0084
:100D1000039A1A44099B591C099107990B401268C0
:100D2000124902339B000B445A60089B013308931D
:100D3000089A029B9A42E9D3069A079B00931346AE
:100D4000029A04990598FFF7DBFE084B1B78002BED
:100D500005D000BF00F028F80346002BFAD100BFF1
:100D60000BB05DF804FB00BF1C0000201C0200203B
:100D700000B583B0019000910023002200990198F2
:100D8000FFF7ACFF00BF03B05DF804FB054B9A68AA
:100D9000044B5B689A420CBF01230023DBB2184668
:100DA000704700BF1C02002000B599B0FFF7EEFFAE
:100DB0000346002B01D00023B9E19B4B0022C3F86E
:100DC0001824BFF34F8F00BF974B9B680493974B3A
:100DD0001B681093049A109B134002339B00924AA5
:100DE0001344043311930023179300231693002315
:100DF0000F9304AB19461198FFF7AAFD0346002B89
:100E000019D0894BD3F81834002B14D1864B5A686B
:100E1000049B9A4205D8844B5B68834A9360002305
:100E200085E1049A109B134002339B007E4A1344D1
:100E300004331193DDE70023159311E0049B5A1C42
:100E40000492109A1340159A920001A90A44764917
:100E500002339B000B445B681360159B01331593B1
:100E6000159B012BEAD99DF8043003F00303DBB294
:100E7000022B40F09C80BDF80630C3F389139BB26F
:100E80000D93BDF80630C3F389139BB2502B28BFD6
:100E900050239BB20C930C9BC3F309039AB2BDF889
:100EA000063062F38F13ADF806300C9B08330B93BA
:100EB0009DF80430C3F3C203DBB20F930B995C4877
:100EC00001F013FB1790179B002B00F0D3801798AD
:100ED00001F09CFB01A9169B0822179801F052FC17
:100EE000169B08331693049BDA43109B134001337F
:100EF0009B000A930C9A0A9B9A4242D90A9B002BA8
:100F000008D0049A109B134002339B00464A1344B6
:100F1000043300E0474B08930A9B002B02D00A9B46
:100F2000DBB201E00C9BDBB28DF81F300A9B002B7B
:100F300001D0404B00E0002306930A9B002B06D013
:100F40000C9BDAB20A9BDBB2D31ADBB200E00023BF
:100F50008DF817309DF81F20169B0899179801F0FF
:100F600011FC9DF81F30169A13441693069B002B14
:100F700016D09DF81720169B0699179801F002FCD1
:100F80000EE0049A109B134002339B00264A134440
:100F900004330993169B0C9A0999179801F0F2FBF8
:100FA0000D9B03339A08049B1344049362E09DF85D
:100FB000043003F00303DBB2012B5BD1BDF8043036
:100FC000C3F38313DBB2062B28BF0623DAB2BDF8C6
:100FD000043062F38913ADF80430BDF80430C3F374
:100FE0008313DBB202330E939DF80430C3F3C203C4
:100FF000DBB20F930E9B9B0019460D4801F075FA6A
:101000001790179B002B35D0179801F0FFFA01A914
:10101000169B0822179801F0B5FB169B0833169310
:10102000002315931DE000BF1C0200201C000020BF
:10103000EC59000028020020049B5A1C0492109ACC
:10104000134002339B003C4A1344191D169B042293
:10105000179801F097FB169B04331693159B0133E9
:101060001593BDF80430C3F38313DBB21A46159B06
:101070009342E1D3179B002B39D02F4BD3F8103478
:1010800014932D4BD3F81834002B1BD0179801F074
:10109000CCFA46E000238DF84F301498FFF793FB0D
:1010A0000346002B02D001238DF84F309DF84F30BE
:1010B000002B03D017991498FFF756FB149BDB689D
:1010C0001B681493149B002BE4D1179801F0ADFA20
:1010D000002000F045FC184BD3F81834002B02D147
:1010E000049B154A9360002000F04EFC19E0124B5F
:1010F000D3F81034129306E01298FFF743FB129BCB
:10110000DB681B681293129B002BF5D10B4A0C4B2A
:10111000D31ADB081B0443F002030A491846FFF701
:1011200027FEFFF733FE034683F00103DBB21846C8
:1011300019B05DF804FB00BF1C020020D459000068
:10114000B4590000945B000000B585B00023039300
:1011500023E0164BD3F81034029301238DF80730A7
:101160000FE00298FFF727FB03461A46039B9342C2
:1011700003D100238DF8073006E0029BDB681B6873
:101180000293029B002BECD19DF80730002B01D07D
:10119000039B07E0039B01330393039B092BD8DDDB
:1011A0004FF0FF33184605B05DF804FB1C02002029
:1011B00000B585B001900B468DF80330FFF7C4FFF2
:1011C0000390039BB3F1FF3F01D1039B22E0039BFC
:1011D000DBB219460198FFF7E1FA104BD3F810344F
:1011E000002B08D10D4A019BC2F81034019BDB682B
:1011F00000221A600DE0094BD3F81034DA68019B25
:10120000DB6812681A60054BD3F81034DB68019A6A
:101210001A60039B184605B05DF804FB1C02002011
:1012200082B00190009100BF02B0704710B584B049
:1012300003900291039BDB88002B0AD0039BDB8881
:101240001A461F4B009313461E4A1F49029800F08E
:1012500095FD039B1B7A052B2ED0039B5B7A002BFD
:1012600012D0039B9B881A46039B1B7A1946104693
:10127000FFF736FB03461A46144B53F822301A4642
:101280001349029800F07AFD039B1B6819460298E7
:10129000FFF7C6FF039B1B7A1A460E4B53F82240FA
:1012A000039B9B8800211846FFF7FAFA0346224663
:1012B0000949029800F062FD00BF04B010BD00BFF4
:1012C000C85B0000D85B0000105C00003400002008
:1012D000285C0000200000202C5C000000B585B0D8
:1012E0000390029113468DF80730039B1B7A052B60
:1012F0000FD0039B5B7A002B06D00D4B1B681A4660
:101300000C49029800F03AFD0B49029800F036FDB6
:1013100007E09DF80730002B03D00749029800F042
:101320002DFD029800F008FD00BF05B05DF804FB3C
:1013300034000020285C0000385C000030B58BB021
:1013400007900691059204930E9B1B7B8DF8273026
:101350000E9B00221A730E990498FFF767FF059BF6
:10136000062B7FD801A252F823F000BF891300009A
:1013700093130000A3130000B7130000D51300005F
:10138000FD1300002D14000007990E9800F0F6FCE4
:1013900069E0069B1B681A4607990E9800F0EEFC60
:1013A00061E0069B1A68069B04331B6807990E9838
:1013B00000F0E4FC57E0069B1A68069B04331968AA
:1013C000069B08331B6800930B4607990E9800F0A4
:1013D000D5FC48E0069B1968069B04331868069BF9
:1013E00008331B68069A0C32126801920093034678
:1013F0000A4607990E9800F0C1FC34E0069B186875
:10140000069B04331C68069B08331B68069A0C3243
:1014100012680699103109680291019200932346DF
:10142000024607990E9800F0A9FC1CE0069B1C6878
:10143000069B04331D68069B08331B68069A0C3212
:1014400012680699103109680698143000680390F4
:101450000291019200932B46224607990E9800F0C4
:101460008DFC00E000BF00220E990498FFF736FFC4
:101470000E9B9DF827201A7300BF0BB030BD00BF34
:1014800000B587B00390029101920093029B082B54
:1014900060D8009B1B7B8DF81330009B00221A73D1
:1014A00000990198FFF7C2FE0023059314E0059A06
:1014B000029B9A4209D2039A059B13441B781A4651
:1014C0002649009800F05AFC03E02549009800F0F6
:1014D00055FC059B01330593059B072BE7D9214953
:1014E000009800F04BFC0023059326E0059A029B30
:1014F0009A421BD2039A059B13441B788DF8123035
:101500009DF812307E2B0AD89DF81230184604F050
:10151000F3F90346002B02D09DF8123000E02E2391
:101520001A461149009800F029FC03E00F49009881
:1015300000F024FC059B01330593059B072BD5D9AF
:10154000012200990198FFF7C9FE009B9DF8132026
:101550001A7300E000BF07B05DF804FB3C5C0000BC
:10156000445C0000485C00004C5C0000505C0000E3
:1015700000B583B00190019B1B68184600F0B5F8D8
:101580000346002B04D105494FF4F67000F02FFA02
:101590004FF0A043184603B05DF804FB545C000014
:1015A00000B585B00190084611461A4603468DF8ED
:1015B00003300B468DF8023013468DF8013001AB35
:1015C0001846FFF7D5FF03909DF803209DF80230E1
:1015D0005B001A439DF801309B001A439DF81830B8
:1015E0001B0242EA03019DF81C301B04019A1943B7
:1015F000039B02F5E07243F8221000BF05B05DF8CE
:1016000004FB00B585B003900023019300230093F1
:101610000023012201210398FFF7C2FF00BF05B09C
:101620005DF804FB00B585B003900B468DF80B30D8
:101630009DF80B300022019200220092002200212E
:101640000398FFF7ADFF00BF05B05DF804FB00B5E0
:1016500085B0019001AB1846FFF78AFF0390019B0C
:10166000012202FA03F31946039800F02AF800BF9A
:1016700005B05DF804FB00B585B0019001AB1846DC
:10168000FFF776FF0390019B012202FA03F319464C
:10169000039800F020F800BF05B05DF804FB00B52A
:1016A00083B001900091009B002B03D10198FFF7BC
:1016B000E2FF02E00198FFF7CAFF00BF03B05DF848
:1016C00004FB82B001900091019B009AC3F80825A9
:1016D00000BF02B0704782B001900091019B009A58
:1016E000C3F80C2500BF02B0704784B00190019B85
:1016F0005B09029300230393029B002B03D14FF05D
:10170000FF33039300BF019B03F01F030193039A70
:10171000019B22FA03F303F00103002B14BF012302
:101720000023DBB2184604B07047000000B583B058
:101730000190019B032B03D90749412000F057F981
:10174000064A019B13441B7800211846FFF7A7FFA8
:1017500000BF03B05DF804FB785C0000CC5C0000C7
:1017600000B583B00190019B032B03D907494720A3
:1017700000F03DF9064A019B13441B7801211846ED
:10178000FFF78DFF00BF03B05DF804FB785C00003D
:10179000CC5C000000B583B00023019305E0019804
:1017A000FFF7DEFF019B01330193019B032BF6D969
:1017B00000BF00BF03B05DF804FB00B583B0002399
:1017C000019305E00198FFF7B1FF019B01330193FD
:1017D000019B032BF6D900BF00BF03B05DF804FBEB
:1017E00000B583B00023019309E0094A019B13442B
:1017F0001B781846FFF705FF019B01330193019BFE
:10180000032BF2D9FFF7C6FF00BF03B05DF804FB5E
:10181000CC5C000000B583B0002301930AE0094AC4
:10182000019B13441B7803211846FFF7FBFE019B25
:1018300001330193019B032BF1D900BF00BF03B01B
:101840005DF804FBD05C000000B583B00190019B03
:1018500003F00103002B01D0FFF7C2FF019B03F04F
:101860000203002B01D0FFF7D5FF00BF03B05DF8E6
:1018700004FB000086B003900291019201238DF8D1
:1018800017309DF81730204A039B13601E4A029BB5
:1018900053601D4A019B9360039B44F201029342F3
:1018A00012D0039B44F20202934220D1019B164ABC
:1018B000D360154BDB681B68134A9361124BDB68DE
:1018C0005B68114AD36112E0019B0F4A13610E4B12
:1018D0001B699B680C4A53610B4B1B691B680A4AC6
:1018E0009361094B1B695B68074AD36100BF72B6FD
:1018F00000BF00BF9DF81730DBB2002BFAD162B6F3
:1019000000BF00BF06B070473C06002000B583B0A2
:1019100002900091019244F2010071466A4603F080
:1019200007FB03B000BD00BF72B600BF034B1B68CE
:101930000133024A136000BF704700BF5C060020FD
:10194000064B1B68013B054A1360044B1B68002BC8
:1019500001D162B600BF00BF704700BF5C06002027
:1019600000B583B0019000F025F80346012B03D0A9
:101970000449432000F03BF8FFF7D6FF00BF03B057
:101980005DF804FBD45C000000B583B003468DF81D
:10199000073000F00FF80346012B03D00449512013
:1019A00000F025F8FFF7CCFF00BF03B05DF804FBA3
:1019B000D45C000084B0EFF305830193019BC3F373
:1019C00008030393039B002B0DD1EFF314830093C3
:1019D000009B0293029B03F00103002B0CBF012329
:1019E0000023DBB200E00123184604B0704700B5C5
:1019F00085B003460091ADF80630BDF8063002937D
:101A0000009B039302AB1A46002144F2020003F04C
:101A10008FFA00BF05B05DF804FB10B487B00190E9
:101A20000091019B009A53E8004F104643E80001E3
:101A300091F0000FF7D1059404900391059B18468F
:101A400007B05DF8044B704710B487B00190009167
:101A5000019B009A53E8004F44EA020043E800016A
:101A600091F0000FF6D1059404900391049B184661
:101A700007B05DF8044B704710B487B00190009137
:101A8000019B009A53E8004F04EA020043E800017A
:101A900091F0000FF6D1059404900391059B184630
:101AA00007B05DF8044B704710B487B00190009107
:101AB000019B009A53E8004F04EB020043E8000149
:101AC00091F0000FF6D1059404900391049B184601
:101AD00007B05DF8044B704710B487B001900091D7
:101AE000019B009A53E8004FA4EB020043E8000179
:101AF00091F0000FF6D1059404900391049B1846D1
:101B000007B05DF8044B704700B583B00190012128
:101B10000198FFF799FF0346184603B05DF804FBF0
:101B200000B583B0019000210198FFF7A5FF03469F
:101B3000184603B05DF804FB00B583B001900B4676
:101B40008DF80330019B002B03D10849E820FFF7F3
:101B50004EFF019BDA689DF803300199098A01FB69
:101B600003F31344184603B05DF804FB3C5D00002A
:101B700000B583B001900091019B002B03D108496F
:101B8000F520FFF734FF009B019AD2689B1A019A57
:101B9000128AB3FBF2F3DBB2184603B05DF804FB24
:101BA0003C5D000000B585B00190019B002B01D188
:101BB0000E234CE0019B1B68002B03D12649FF201C
:101BC000FFF715FF019B5B68002B04D122494FF4FE
:101BD0008070FFF70CFF019B9B68002B04D11E490E
:101BE00040F20110FFF703FF019BDB68002B04D1DB
:101BF00019494FF48170FFF7FAFE019B1B8A002BF5
:101C000004D1154940F20310FFF7F1FE019B9A68D9
:101C1000019B5B68D31A8DF80F30019B1B68019AFA
:101C200052681A6007E0019B1A681368591C11601A
:101C30009DF80F201A709DF80F305A1E8DF80F2056
:101C4000002BF0D1019B1B6800221A71002318465B
:101C500005B05DF804FB00BF3C5D000000B585B039
:101C60000190019B002B04D11C494FF49270FFF7A7
:101C7000BEFE002303930020FFF772FE019B1B684A
:101C80001A68019B5B689A421FD9019B1B681A68FE
:101C9000013A1A601B681B7819460198FFF74CFF40
:101CA0000390019B9A68019B1B681B68D31A8DF8EF
:101CB0000B30019B1B681B799DF80B209A4204D9BD
:101CC000019B1B689DF80B201A710020FFF75CFE3A
:101CD000039B184605B05DF804FB00BF3C5D0000A7
:101CE00010B584B001900091019B002B04D11149E3
:101CF00040F24710FFF77BFE009B002B04D10D49FB
:101D00004FF4A470FFF773FE009B03930020FFF7CE
:101D100027FE019B1B681C68621C1A6003990198CE
:101D2000FFF726FF034623700020FFF72DFE00BFBC
:101D300004B010BD3C5D000000B583B00190019B74
:101D4000002B03D10C493120FFF751FE019B9B680A
:101D5000002B0CD0019B5B69019A1069019A1168F4
:101D6000019A92689847019B00229A6000E000BFA8
:101D700003B05DF804FB00BF9C5D00000EB400B52D
:101D800084B00190019B002B03D118494220FFF73A
:101D90002EFE019B5B69002B03D114494320FFF702
:101DA00026FE019B1B68002B03D110494420FFF73E
:101DB0001EFE019B5B68002B03D10C494520FFF7F9
:101DC00016FE059B002B0AD00023039306AB03935A
:101DD00003AB1A460599019800F0B8F900E000BF7E
:101DE00004B05DF804EB03B0704700BF9C5D0000D9
:101DF00000B583B001900B468DF803309DF8033099
:101E00000A2B03D10D210198FFF7F2FF019B1A68FD
:101E1000019B9B68581C0199886013449DF803201E
:101E20001A70019B9A68019B5B689A4202D30198E1
:101E3000FFF782FF00BF03B05DF804FB00B587B079
:101E4000039002910192009300230593009B03F0FD
:101E50000103002B24D00BE0029B01330293059B6E
:101E6000013305939DF8133019460398FFF7C0FF1F
:101E7000029B1B788DF813309DF81330002BEBD1AB
:101E800006E0019B013B019320210398FFF7B0FF7F
:101E9000019A059B9A422ED9019B002BF1D12AE091
:101EA000029B002B0BD0029803F054FD059006E036
:101EB000019B013B019320210398FFF799FF019AB1
:101EC000059B9A420FD9019B002BF1D10BE0029B9D
:101ED00001330293059B013305939DF81330194696
:101EE0000398FFF785FF029B1B788DF813309DF850
:101EF0001330002BEBD100BF07B05DF804FB0000EE
:101F000000B589B00390029101920093029B079360
:101F10000123069307E0079A019BB2FBF3F30793B3
:101F2000069B01330693079A019B9A42F3D2009ACB
:101F3000069B9A4201D9009B06930B9B03F0010379
:101F4000002B22D10A9B002B1FD00B9B03F0020316
:101F5000002B06D0009B002B03D130238DF81730C7
:101F600002E020238DF8173008E00A9B013B0A931A
:101F70009DF8173019460398FFF73AFF0A9B002B8C
:101F800003D0069A0A9B9A42EFD301230793009B42
:101F9000012B03D9009B013B009309E0029A079BA8
:101FA000B2FBF3F30493049A019B9A4200D205E03A
:101FB000079B019A02FB03F30793E8E7029A079B4A
:101FC000B2FBF3F30493049B079A02FB03F3029A18
:101FD000D31A0293154A049B13441B78194603989D
:101FE000FFF706FF079A019BB2FBF3F30793079BEA
:101FF000002BE3D10B9B03F00103002B11D00A9BB4
:10200000002B0ED006E00A9B013B0A932021039887
:10201000FFF7EEFE0A9B002B03D0069A0A9B9A421A
:10202000F1D300BF09B05DF804FB00BF545E0000AF
:1020300000B589B00590049103920293049B002B94
:10204000B8BF5B4206930123079307E0039B069A00
:1020500092FBF3F30693079B01330793039B069AC6
:102060009A42F3DA029A079B9A4201D9029B07939C
:102070000A9B002B0AD0049B002B04DB0B9B03F074
:102080000403002B02D00A9B013B0A930B9B03F035
:102090000203002B02D0029B002B16D00B9B03F0F7
:1020A0000103002B11D10A9B002B0ED006E00A9BE6
:1020B000013B0A9320210598FFF79AFE0A9B002B0B
:1020C00003D0079A0A9B9A42F1D3049B002B07DAAC
:1020D000049B5B4204932D210598FFF789FE08E0DD
:1020E0000B9B03F00403002B03D02B210598FFF773
:1020F0007FFE0B9B03F00203002B19D00B9B03F018
:102100000103002B14D1029B002B11D10A9B002B41
:102110000ED006E00A9B013B0A9330210598FFF799
:1021200067FE0A9B002B03D0079A0A9B9A42F1D3C1
:1021300004990B9B01930A9B0093029B039A0598B9
:10214000FFF7DEFE00BF09B05DF804FB00B58FB0FD
:10215000059004910392059B002B04D1AD4940F2F8
:102160005220FFF744FC059B5B69002B04D1A94971
:102170004FF41570FFF73BFC059B1B68002B04D147
:10218000A44940F25520FFF732FC059B5B68002B09
:1021900004D1A04940F25620FFF729FC049B002BF4
:1021A00000F09381049B1B788DF83730049B01333A
:1021B00004939DF83730002B00F07E819DF8373076
:1021C000252B40F06D8100230A9301230C93049B7F
:1021D0001B788DF837309DF83730302B0DD0302BF1
:1021E0001BDC2B2B11D02D2B17D10A9B43F00103A5
:1021F0000A93049B0133049312E00A9B43F0020309
:102200000A93049B013304930AE00A9B43F00403FE
:102210000A93049B0133049302E000230C9300BF54
:102220000C9B002BD3D1002309939DF837302A2B28
:102230000CD1039B1B68191D039A11601B68099A36
:1022400013440993049B013304931AE0049B1B7805
:102250008DF837309DF837302F2B12D99DF8373055
:10226000392B0ED8049B01330493099A13469B0023
:1022700013445B001A469DF837301344303B0993F2
:10228000D3E700230B93049B1B788DF837309DF820
:1022900037302E2B1DD1049B01330493049B1B78F4
:1022A0008DF837309DF837302F2B12D99DF8373005
:1022B000392B0ED8049B013304930B9A13469B00D1
:1022C00013445B001A469DF837301344303B0B93A0
:1022D000E4E7049B1B788DF837309DF837306C2B82
:1022E00003D09DF83730682B07D1049B013304934A
:1022F000049B1B788DF83730EFE79DF83730252B9E
:1023000000F0C480252BC0F2C680782B00F3C38078
:10231000582BC0F2C080583B202B00F2BC8001A299
:1023200052F823F01924000097240000972400009D
:1023300097240000972400009724000097240000B1
:1023400097240000972400009724000097240000A1
:10235000A9230000CB23000097240000972400004D
:102360009724000097240000CB230000972400004E
:102370009724000097240000972400009724000071
:10238000972400005924000097240000972400009F
:102390003D24000097240000EF2300009724000054
:1023A0009724000019240000039B1B68191D039A41
:1023B00011601B680C930C9B8DF81F309DF81F302B
:1023C00019460598FFF714FD66E0039B1B68191D6D
:1023D000039A11601B680C930A9B0193099B00935D
:1023E0000B9B0A220C990598FFF722FE54E0039BF1
:1023F0001B68191D039A11601B680C930C990A9BAA
:102400000193099B00930B9B0A220598FFF778FD27
:1024100042E000BFF45D0000039B1B68191D039A96
:1024200011601B680C930C990A9B0193099B009304
:102430000B9B10220598FFF763FD2DE0039B1B68A3
:10244000191D039A11601B6808930A9B099A089941
:102450000598FFF7F3FC1FE0039B1B68191D039A07
:1024600011601B680C9330210598FFF7C1FC78219F
:102470000598FFF7BDFC0C990023019308230093F6
:10248000082310220598FFF73BFD05E0252105985C
:10249000FFF7AEFC00E000BF049B0133049305E0AE
:1024A0009DF8373019460598FFF7A2FC049B1B786E
:1024B000002B7FF477AE00E000BF059B1B7B002B59
:1024C00004D00598FFF738FC00E000BF0FB05DF8BE
:1024D00004FB00BF00B583B001900198FFF762FBD9
:1024E0000346184603B05DF804FB00B58BB00190BD
:1024F0000091019B1B8A043B0793009A079B13449E
:10250000DA1C079BB2FBF3F38DF81B300198FFF741
:10251000A5FB0590059B002B01D1002338E0059B0E
:1025200000221A71059B01225A71079B9AB2059BE2
:10253000DA80059B09939DF81B30013B0493099BAE
:10254000019A1A60002308931DE00198FFF786FBAB
:102550000390039B002B0ED0059B5B790133DAB20D
:10256000059B5A71099B039A1A60039B019A1A6092
:10257000039B099304E0059800F00EF8002307E0A0
:10258000089B01330893089A049B9A42DDD3059B6C
:1025900018460BB05DF804FB00B58BB00190019BB1
:1025A0000793079B5B798DF81B30019B08939DF87F
:1025B0001B30013B05930023099305E0089B1B6832
:1025C0000893099B01330993099A059B9A42F5D315
:1025D000089B1B680493019B0893002309930BE05D
:1025E000089B1B68039308990498FFF779FB039BEA
:1025F0000893099B013309939DF81B30099A9A426D
:10260000EED300BF00BF0BB05DF804FB00B585B092
:102610000190019B0393039B043301211846FFF7AC
:1026200043FA00BF05B05DF804FB00B587B0019028
:10263000019B0593059B043301211846FFF74CFAD3
:102640000346039303AB0493049B1B78002B02D136
:102650000198FFF7A1FF00BF07B05DF804FB000081
:1026600000B591B00390029101920093039B002B5F
:1026700003D14349B620FFF7BAF9039B0993039BA3
:102680000F93099BDB881A46099B5B7902FB03F3D6
:10269000043B0893009A089B9A4203D33849C4200C
:1026A000FFF7A5F9099BDB880793009B1A1D079B81
:1026B000B2FBF3F30E93009B0433079AB3FBF2F2E1
:1026C000079901FB02F29B1A0D93019B1A68009B6C
:1026D0001344089A9A4203D2089A009BD31A01E045
:1026E000019B1B680C93019B0C9A1A6005E00F9BE1
:1026F0001B680F930E9B013B0E930E9B002BF6D194
:1027000000230B93079A0D9BD31A0A930A9A0C9BEA
:10271000934228BF13460A932AE0029A0B9B134464
:1027200006930F9A0D9B1344043305939DF848308C
:10273000002B05D00A9A0599069803F0E2F804E008
:102740000A9A0699059803F0DCF800230D930F9B75
:102750001B680F930C9A0A9BD31A0C930B9A0A9B33
:1027600013440B93079A0C9B934228BF13460A937A
:102770000C9B002BD1D100BF00BF11B05DF804FB52
:10278000645E000000B589B0059004910392029345
:10279000039B079307AA00230093029B04990598C3
:1027A000FFF75EFF079B039A9A4203D00349F62086
:1027B000FFF71DF900BF09B05DF804FB645E00007F
:1027C00000B589B00590049103920293039B07938F
:1027D00007AA01230093029B04990598FFF740FF85
:1027E000079B039A9A4204D004494FF48070FFF784
:1027F000FEF800BF09B05DF804FB00BF645E000096
:1028000082B00190019B9B6800229A60019B9B68AB
:1028100000221A61019B9B6800225A61019B9B6800
:102820000022DA60019B9B6800225A60019B9B6832
:1028300000221A6000BF02B07047000000B589B0E6
:1028400001900091009B0793019B1B788DF80C3041
:10285000019B5B680493019B9B68DBB28DF814308D
:10286000019BDB680693074A079B52F82330064911
:10287000079A51F8221003AA1046984700BF09B0E2
:102880005DF804FB600600206406002000B589B0F6
:1028900001900091009B0793019B1B788DF80C30F1
:1028A000019B5B680493019B9B68DBB28DF814303D
:1028B000019BDB680693074A079B52F823300649C1
:1028C000079A51F8221003AA1046984700BF09B092
:1028D0005DF804FB600600206406002030B58FB070
:1028E000039002910192039B1B780C9326490C9B49
:1028F000019A41F82320029B1A6924490C9B41F854
:102900002320029B5B7F1946214A0C9B13440A46F5
:102910001A70029B04AC1D460FCD0FC495E80F0042
:1029200084E80F000C9B089300230D93039B1B78F6
:102930001A46174B9B5C002B0DD0039B181D019B67
:10294000002B01D0134A00E0002204AB194602F02C
:1029500003F80D9014E0039B1B781A460C4B9B5C0C
:10296000002B0DD1039B03F10C00019B002B01D028
:10297000094A00E0002204AB194601F087F90D90E6
:102980000D9B18460FB030BD600600206406002085
:10299000680600203D2800008D28000082B0034614
:1029A0008DF807309DF90730002B0CDB9DF80730C0
:1029B00003F01F0205499DF907305B09012000FA69
:1029C00002F241F8232000BF02B0704700E100E0AE
:1029D00082B0034600918DF807309DF90730002B37
:1029E0000ADB009BDAB20C499DF907305201D2B2E2
:1029F0000B4483F800230BE0009BDAB207499DF8F3
:102A0000073003F00F03043B5201D2B20B441A7695
:102A100000BF02B0704700BF00E100E000ED00E041
:102A200082B00190019B03F06043B3F1005F0CBFE3
:102A300001230023DBB2184602B0704782B0019038
:102A4000019B03F00303002B0CBF01230023DBB227
:102A5000184602B07047000000B583B003460A462E
:102A60008DF8073013468DF806309DF80630072B99
:102A700003D908496B20FEF7BAFF9DF806209DF99F
:102A8000073011461846FFF7A3FF00BF03B05DF8FB
:102A900004FB00BFC45E000000B583B003468DF8A0
:102AA00007309DF907301846FFF778FF00BF03B0E5
:102AB0005DF804FB82B001900B468DF803309DF861
:102AC0000330019A134401221A6000BF02B070471C
:102AD00084B001900B46ADF80230BDF80230019A87
:102AE000134400221A60BDF80230019A13441B6897
:102AF0000393039B00BF04B0704782B001900B4664
:102B0000ADF80230BDF80230019A13441B68002B67
:102B100014BF01230023DBB2184602B0704782B015
:102B200001900091019B009AC3F8042300BF02B0FA
:102B3000704782B001900091019B009AC3F808236E
:102B400000BF02B0704782B00190019B0122C3F820
:102B5000002500BF02B0704782B00190019B0022A7
:102B6000C3F8002500BF02B0704784B00390029103
:102B700001920093039B029AC3F86425039B019A78
:102B8000C3F86825039B009AC3F86025039B049A49
:102B9000C3F87025039B059AC3F86C2500BF04B0E9
:102BA000704782B00190084611461A4603468DF8D8
:102BB00003300B468DF8023013468DF801309DF836
:102BC0000330002B21D19DF80830012B03D19DF853
:102BD0001430012B17D09DF80830022B15D19DF829
:102BE0001430002B0FD09DF81430022B0BD09DF821
:102BF0001430042B07D09DF81430062B03D09DF819
:102C00001430082B01D100232EE09DF80320019BF6
:102C1000C3F804259DF80220019BC3F824259DF8E4
:102C20000120019BC3F820259DF80820019BC3F8D3
:102C30001C259DF80C20019BC3F828259DF8142025
:102C4000019BC3F81825049B002B04D1019B002293
:102C5000C3F8102507E0049A019BC3F81425019BD3
:102C60000122C3F810250123184602B0704700B5B1
:102C700085B00390019200930B46ADF80A30BDF881
:102C80000A20039BC3F850250199039800F01CF813
:102C9000019B002B14BF01230023DBB21A46039BC8
:102CA000C3F808250099039800F018F8009B002B42
:102CB00014BF01230023DBB21A46039BC3F80C2583
:102CC00000BF05B05DF804FB82B001900091009A4E
:102CD000019BC3F8382500BF02B0704782B0019055
:102CE0000091009A019BC3F8402500BF02B07047D5
:102CF00000B583B00190019B1B68184600F067F88F
:102D00000346002B04D105494FF4F670FEF76FFE21
:102D10004FF0A043184603B05DF804FBE85E0000E6
:102D200000B585B00190084611461A4603468DF855
:102D300003300B468DF8023013468DF8013001AB9D
:102D40001846FFF7D5FF03909DF803209DF8023049
:102D50005B001A439DF801309B001A439DF8183020
:102D60001B0242EA03019DF81C301B04019A19431F
:102D7000039B02F5E07243F8221000BF05B05DF836
:102D800004FB00B585B0039000230193002300935A
:102D90000023012201210398FFF7C2FF00BF05B005
:102DA0005DF804FB00B585B003900B468DF80B3041
:102DB0009DF80B3000220192002200920022002197
:102DC0000398FFF7ADFF00BF05B05DF804FB84B0CA
:102DD0000190019B5B09029300230393029B002B4C
:102DE00003D14FF0FF33039300BF019B03F01F0398
:102DF0000193039A019B22FA03F303F00103002BD2
:102E000014BF01230023DBB2184604B07047000052
:102E100000B589B00390039B9B79002B0AD1039BDB
:102E20001B781846FFF7ADFF039B5B781846FFF74A
:102E3000A8FF0BE0039B1B7800211846FFF7B2FFA9
:102E4000039B5B7800211846FFF7ACFF039B9B7840
:102E5000FF2B06D0039B9B7807930798FFF791FF02
:102E600002E04FF0FF330793039BDB78FF2B06D084
:102E7000039BDB7806930698FFF783FF02E04FF091
:102E8000FF330693039B1B79FF2B07D0039B1B7912
:102E9000059300210598FFF785FF02E04FF0FF330F
:102EA0000593039B1B781946039B5B781A46059B89
:102EB0000193069B0093079B0348FFF756FE00BF54
:102EC00009B05DF804FB00BF0050024070B588B047
:102ED00005900491059B002B03D125499620FEF710
:102EE00086FD049B002B03D121499720FEF77FFD2F
:102EF000204B1B79002B03D008230793079B34E05A
:102F0000059B9C79059BDD79059B1E7A059B5B7A69
:102F1000059A927A0599C9680598007C03900291F8
:102F20000192009333462A4621461348FFF739FEA3
:102F3000034683F00103DBB2002B03D00723079382
:102F4000079B12E00598FFF763FF0A4A049B136092
:102F5000059B5B7919462520FFF77EFD2520FFF7AD
:102F60009BFD044B01221A710023184608B070BD66
:102F7000105F00006C0600200050024000B585B0D4
:102F800001900B46ADF8023013468DF80130019BDD
:102F9000002B03D17049D920FEF729FD019B1B6846
:102FA000002B07D1019B5B68002B03D16A49DA2013
:102FB000FEF71DFD019B1B68002B13D0019B1B68B6
:102FC0001846FFF72DFD0346002B07D0019B1B6819
:102FD0001846FFF733FD0346002B03D15E49DC2082
:102FE000FEF705FD019B5B68002B13D0019B5B681E
:102FF0001846FFF715FD0346002B07D0019B5B68C1
:103000001846FFF71BFD0346002B03D15249DF2072
:10301000FEF7EDFCBDF80230002B03D14E49E22053
:10302000FEF7E5FC4D4B1B79012B03D008230393DE
:10303000039B8DE0019B1B68002B0AD0019B1B6842
:103040001846FFF7EDFC034683F00103DBB2002BCB
:103050000ED1019B5B68002B0ED0019B5B6818466C
:10306000FFF7DEFC034683F00103DBB2002B03D045
:1030700010230393039B6BE0019B1B68002B14BF81
:1030800001230023D9B2354A537961F30003537108
:10309000019B5B68002B14BF01230023D9B22F4A88
:1030A000537961F3410353712C4A53796FF38203CF
:1030B00053712A4A53796FF3C3035371274A5379E3
:1030C0006FF304135371254ABDF80230D380234BAC
:1030D000019A083392E8030083E803001F4B0022A3
:1030E0001A611E4B00225A611C4BD9881B4B9A68EF
:1030F0001A4BDB681A48FFF7BAFD1948FFF723FDA2
:10310000164B02221A714FF482711548FFF7E0FC4A
:103110004FF48A711248FFF7DBFC4FF484711048BA
:10312000FFF7D6FC0D4B5B795B0003F002020B4B03
:103130005B791B0103F02003134343F0040319469A
:103140000748FFF7ECFC00210548FFF7B3FC00231C
:10315000184605B05DF804FB105F00006C06002007
:103160000050024000B585B00190584B1B79022BEE
:1031700004D0574940F22310FEF739FC019B002B85
:1031800004D153494FF49270FEF731FC019B1B6848
:10319000002B14D0019B1B681846FFF741FC034627
:1031A000002B07D0019B1B681846FFF747FC03461E
:1031B000002B04D1464940F22510FEF718FC019B74
:1031C0005B68002B14D0019B5B681846FFF728FC56
:1031D0000346002B07D0019B5B681846FFF72EFCC7
:1031E0000346002B04D13A494FF49470FEF7FFFBDD
:1031F000364B5B79C3F30013DBB283F00103DBB220
:10320000002B03D008230393039B5AE0019B1B6808
:10321000002B0AD0019B1B681846FFF701FC0346F0
:1032200083F00103DBB2002B0ED1019B5B68002B06
:103230000ED0019B5B681846FFF7F2FB034683F054
:103240000103DBB2002B03D010230393039B38E070
:103250001E4B5B7903F00203DBB2002B0ED0019B07
:103260005B68002B04D11A494FF4A370FEF7BFFB33
:10327000019B5B6819461748FFF730FD134B5B79DC
:1032800003F00103DBB2002B0ED0019B1B68002B67
:1032900004D10F4940F24B10FEF7A9FB019B1B68BC
:1032A00019460C48FFF710FD084B019A083392E8C5
:1032B000030083E80300054A53796FF30413537145
:1032C0000023184605B05DF804FB00BF6C06002023
:1032D000105F00000050024000B583B04FF48A71C7
:1032E0007648FFF70AFC0346002B1CD04FF48A7186
:1032F0007248FFF7EDFB724A537943F008035371AC
:103300006F4B5B7903F00203DBB2002B0BD06C4BED
:103310005B7903F01003DBB2002B04D0684A5379C9
:1033200043F0200353714FF482716448FFF7E5FBCB
:103330000346002B1CD04FF482716048FFF7C8FB96
:103340005F4A537943F0040353715D4B5B7903F09B
:103350000103DBB2002B0BD0594B5B7903F0100358
:10336000DBB2002B04D0564A537943F0200353714B
:103370004FF484715148FFF7C0FB0346002B19D06E
:103380004FF484714D48FFF7A3FB04214B48FFF72E
:10339000D0FB4A48FFF7E0FB494B1B680021494836
:1033A0009847474B1B68002147489847444B0122E8
:1033B0001A717EE0424B5B7903F00203DBB2002B13
:1033C00014D03F4B5B7903F00103DBB2002B0DD02F
:1033D0003B4B5B7903F00803DBB2002B06D0384B84
:1033E0005B7903F00403DBB2002B21D1344B5B7912
:1033F000C3F30003DBB283F00103DBB2002B06D082
:103400002F4B5B7903F00803DBB2002B10D12C4B60
:103410005B79C3F34003DBB283F00103DBB2002B23
:1034200047D0274B5B7903F00403DBB2002B40D07D
:10343000234A53796FF3C3035371214A53796FF3CE
:10344000820353711E4B5B7903F02003DBB2002B28
:103450000FD01B4A53796FF345135371184A5379B0
:1034600043F010035371164B1B680121002098474D
:103470001FE0134A6B46103292E8030083E8030012
:103480000F4B0F4A1033083292E8030083E8030021
:103490000B4B00229A600A4B0022DA60084A5379EB
:1034A00043F010035371064B1B686A460121104616
:1034B000984700BF03B05DF804FB00BF0050024016
:1034C0006C0600207C0600207406002008B5064B20
:1034D0001B68002B03D105495120FEF788FA024BE7
:1034E0001B68984700BF08BD84060020705F00007D
:1034F00082B00190019B044A934201D1034B00E04A
:103500000023184602B070470020004084060020C7
:1035100000B587B001900091019B002B03D11849A1
:103520007720FEF764FA0198FFF7E2FF0590059B0C
:10353000002B1ED000238DF813300020FEF710FA68
:10354000059B1B79002B03D001238DF8133005E078
:10355000059B009A1A60059B01221A710020FEF754
:1035600013FA9DF81330002B03D011230393039B10
:1035700002E000230393039B184607B05DF804FBA9
:10358000705F000000B585B00190019B002B03D156
:103590000A499B20FEF72BFA0198FFF7A9FF039039
:1035A000039B002B05D0039B00221A60039B002283
:1035B0001A7100BF05B05DF804FB00BF705F00002A
:1035C00082B003468DF807309DF90730002B0CDBE5
:1035D0009DF8073003F01F0205499DF907305B098C
:1035E000012000FA02F241F8232000BF02B0704728
:1035F00000E100E082B003468DF807309DF9073006
:10360000002B13DB9DF8073003F01F0209499DF9D9
:1036100007305B09012000FA02F2203341F8232031
:10362000BFF34F8F00BFBFF36F8F00BF00BF02B06B
:10363000704700BF00E100E082B0034600918DF8C2
:1036400007309DF90730002B0ADB009BDAB20C49EA
:103650009DF907305201D2B20B4483F800230BE0EE
:10366000009BDAB207499DF8073003F00F03043BD3
:103670005201D2B20B441A7600BF02B0704700BFAD
:1036800000E100E000ED00E082B00190019B1B0B27
:103690005BB2184602B0704700B583B003460A46D5
:1036A0008DF8073013468DF806309DF80630072B4D
:1036B00003D908496B20FEF79AF99DF806209DF979
:1036C000073011461846FFF7B7FF00BF03B05DF89B
:1036D00004FB00BFD05F000000B583B003468DF847
:1036E00007309DF907301846FFF76AFF00BF03B0A7
:1036F0005DF804FB00B583B003468DF807309DF9F3
:1037000007301846FFF776FF00BF03B05DF804FBF3
:1037100084B001900B46ADF80230BDF80230019A3A
:10372000134400221A60BDF80230019A13441B684A
:103730000393039B00BF04B0704782B001900B4617
:10374000ADF80230BDF80230019A13441B68002B1B
:1037500014BF01230023DBB2184602B0704782B0C9
:1037600001900091019B009AC3F8042300BF02B0AE
:10377000704782B001900091019BD3F80423009B15
:103780001340002B14BF01230023DBB2184602B004
:10379000704782B001900091019B009AC3F8082302
:1037A00000BF02B0704784B00190019BD3F8803411
:1037B0000393019B039AC3F88024039B184604B02B
:1037C000704782B00190019B0422C3F8002500BF1E
:1037D00002B0704782B00190019B0022C3F800251F
:1037E00000BF02B0704784B0039002910192039B26
:1037F000019AC3F81425039B029AC3F80C2500BF55
:1038000004B0704700B583B001904FF0FF324FF025
:10381000FF310198FFF7E7FF00BF03B05DF804FB3D
:1038200082B00190019BD3F80C35184602B0704766
:1038300082B00190019BD3F81435184602B070474E
:1038400082B00190019BD3F80835184602B070474A
:1038500082B00190019BD3F81035184602B0704732
:1038600084B0039002910192039B029AC3F8082549
:10387000039B019AC3F8102500BF04B0704700B540
:1038800083B001904FF0FF324FF0FF310198FFF706
:10389000E7FF00BF03B05DF804FB82B00190019B1D
:1038A000D3F81835DBB2184602B0704782B00190E9
:1038B0000B468DF803309DF80320019BC3F81C25AF
:1038C00000BF02B0704782B001900B468DF8033004
:1038D0009DF80330019A134401221A6000BF02B020
:1038E000704782B001900B468DF8033013468DF877
:1038F00002309DF803209DF802301343DBB21A46D4
:10390000019BC3F86C2500BF02B0704782B00190E4
:103910000091019B009AC3F8242500BF02B07047B4
:1039200000B583B00190019B1B68184600F096F823
:103930000346002B04D105494FF4F670FEF757F803
:103940004FF0A043184603B05DF804FBF45F00009D
:1039500000B585B00190084611461A4603468DF819
:1039600003300B468DF8023013468DF8013001AB61
:103970001846FFF7D5FF03909DF803209DF802300D
:103980005B001A439DF801309B001A439DF81830E4
:103990001B0242EA03019DF81C301B04019A1943E3
:1039A000039B02F5E07243F8221000BF05B05DF8FA
:1039B00004FB00B585B0039000230193002300931E
:1039C0000023012201210398FFF7C2FF00BF05B0C9
:1039D0005DF804FB00B585B003900B468DF80B3005
:1039E0009DF80B300022019200220092002200215B
:1039F0000398FFF7ADFF00BF05B05DF804FB00B50D
:103A000085B003900023019300230093002301223B
:103A100000210398FFF79CFF00BF05B05DF804FB91
:103A200000B585B0019001AB1846FFF779FF039010
:103A3000019B012202FA03F31946039800F004F8EF
:103A400000BF05B05DF804FB82B001900091019BBE
:103A5000009AC3F8082500BF02B0704784B00190F7
:103A6000019B5B09029300230393029B002B03D16C
:103A70004FF0FF33039300BF019B03F01F0301933B
:103A8000039A019B22FA03F303F00103002B14BFF6
:103A900001230023DBB2184604B0704700B583B0A1
:103AA00001900091009B1B68B3F1FF3F09D0009B80
:103AB0001B681846FFF7B4FF009B1B681846FFF70A
:103AC00078FF009B5B68B3F1FF3F05D0009B5B680C
:103AD00000211846FFF77EFF019B1A68009B9B6937
:103AE00019461046FFF712FF019B1868009B597D8D
:103AF000009B1B7D1A46FFF7F4FE019B1868009B94
:103B00001968009B5B681A46FFF76DFE009B1B7DE2
:103B1000012B22D1009B9B68B3F1FF3F05D0009B96
:103B20009B6800211846FFF755FF009BDB68B3F147
:103B3000FF3F09D0009BDB681846FFF771FF009B31
:103B4000DB681846FFF735FF019B1868009BD968B2
:103B5000009B9B681A46FFF783FE00BF03B05DF829
:103B600004FB000000B583B001900B468DF80330D4
:103B7000019B1B684FF48E711846FFF7C9FD019B2E
:103B80001B684FF4A2711846FFF7C2FD019B1B682A
:103B90000E491846FFF7E3FD019B1B681846FFF727
:103BA00073FD03461A469DF8033019461046FFF789
:103BB00073FD019B1B681846FFF766FD0346184618
:103BC000FFF78AFD00BF03B05DF804FB8000020030
:103BD00000B583B00190019B1B6808491846FFF7A8
:103BE000D8FD019B1B681846FFF74EFD034618469B
:103BF000FFF780FD00BF03B05DF804FB8402020004
:103C000000B587B00190019B1B681846FFF708FEBE
:103C10000590019B1B681846FFF70AFE0490019B64
:103C20001B681846FFF70CFE0390019B1B681846A3
:103C3000FFF70EFE0290019B1B681846FFF7E2FD9E
:103C4000019B1B681846FFF71AFE059BB3F1FF3F67
:103C500002D00598FFF7D3FE049BB3F1FF3F02D0DB
:103C60000498FFF7CCFE029BB3F1FF3F02D002980D
:103C7000FFF7C5FE039BB3F1FF3F02D00398FFF7A8
:103C8000BEFE00BF07B05DF804FB000000B587B0C2
:103C9000039002910192029B002B03D12D49AA208F
:103CA000FDF7A5FE039B1B791A462C2302FB03F3A9
:103CB000294A1344049300230593049B93F82A3064
:103CC000002B03D008230593059B3EE0039B1A6855
:103CD000039B1B791946214B53F821301946104696
:103CE000FFF716FC0346002B03D011230593059B19
:103CF0002BE002990398FFF7D1FE049B019A5A60CA
:103D0000029B1A69049B1A60049B5B68002B05D018
:103D1000029B1B7F19460398FFF724FF039B1B6838
:103D20001846FFF74EFD049B00229A61049B002277
:103D3000DA61049B002283F82920049B00225A6147
:103D4000049B012283F82A20059B184607B05DF8E2
:103D500004FB00BF206000008C0600207C60000097
:103D600000B585B00190019B1B791A462C2302FBFC
:103D700003F3114A13440393019B1B681846FFF792
:103D800029FD039B5B68002B02D00198FFF720FF01
:103D90000198FFF735FF019B1B681846FFF7F2FB00
:103DA000039B002283F82A20039B00225A6000BF55
:103DB00005B05DF804FB00BF8C06002000B585B09F
:103DC000019000914FF48E710198FFF7A1FC009BC8
:103DD0009A68009B1B6A13441B788DF80F30009B78
:103DE0001B6A5A1C009B1A629DF80F3019460198F5
:103DF000FFF75CFD00BF05B05DF804FB00B585B0C2
:103E000001900091009B5B69039316E0009B93F87F
:103E10002830DBB2002B01D0002314E04FF48E7168
:103E20000198FFF78AFC034683F00103DBB2002B05
:103E3000ECD100990198FFF7C1FF009B1B6A039A20
:103E40009A42EBD80123184605B05DF804FB000048
:103E500000B587B0039002910192039B1B791A462B
:103E60002C2302FB03F33C4A13440493049B93F872
:103E70002A30012B04D039494FF48C70FDF7B7FD7F
:103E8000029B002B04D1354940F21910FDF7AFFD1C
:103E9000019B002B04D131494FF48D70FDF7A7FD34
:103EA000039800F05DF80346002B03D0112305931F
:103EB000059B4CE0049B019A5A61049B029A9A600C
:103EC000049B00221A62049B002283F8282000230E
:103ED0000593039B1B684FF48E711846FFF718FC7F
:103EE000039B1B6808211846FFF7EDFC039B1B682A
:103EF00004991846FFF762FF049B5B68002B25D1ED
:103F0000039B1B6804991846FFF778FF034683F06C
:103F10000103DBB2002B02D00F23059313E000BF97
:103F2000039B1B684FF48E711846FFF706FC03468F
:103F300083F00103DBB2002BF2D1039B1B680C2141
:103F40001846FFF7C0FC049B00225A61059B1846E7
:103F500007B05DF804FB00BF8C0600202060000065
:103F600082B00190019B1B791946074A2C2301FB63
:103F700003F3134414331B68002B14BF01230023E5
:103F8000DBB2184602B070478C06002010B582B034
:103F900001900091009B9B69002B08D14FF4847124
:103FA0000198FFF7B5FB0198FFF777FC13E04FF49A
:103FB00084710198FFF7ACFB009BDA68009B5B6A99
:103FC000D4180198FFF769FC03462370009B5B6AD5
:103FD0005A1C009B5A6202B010BD00B589B0039014
:103FE0000291019201238DF81030029B0693019BF0
:103FF0000593039B5B68039A116804AA10469847CF
:1040000000BF09B05DF804FB00B587B001900091D6
:1040100000238DF80830009B0493019B9B68039359
:10402000019B00225A61019B5B68019A116802AAF8
:104030001046984700BF07B05DF804FB00B58BB091
:10404000019000914FF400710198FFF792FB034635
:10405000002B39D04FF492710198FFF76EFB0346A5
:10406000002B31D04FF492710198FFF751FB4FF4C0
:1040700001710198FFF78DFB009B93F8293083F0C5
:104080000103DBB2002B03D004210198FFF71BFCD6
:1040900002238DF80C300198FFF785FB0346069349
:1040A000009B9B690593009BDB680493009B0022A7
:1040B0009A61009B0022DA61009B5B68009A11689C
:1040C00003AA1046984752E004210198FFF751FBDC
:1040D0000346002B4BD04FF484710198FFF72DFB62
:1040E0000346002B43D000990198FFF74FFF009B38
:1040F0009A69009B5B6A9A4239D1009BDB69002B6D
:1041000019D0009BDB680993009B5B6A0893009BB6
:10411000DA69009B9A61009B1A69009BDA60009B38
:104120000022DA61009B00225A62099A08990098DD
:10413000FFF753FF1BE0009B93F8293083F0010346
:10414000DBB2002B03D004210198FFF7BCFB4FF436
:1041500001710198FFF71DFB009B00229A61009BF3
:10416000596A009BDB681A460098FFF736FF4FF448
:104170008E710198FFF7E1FA0346002B24D0009BD3
:104180005B690793009B1B6A079A9A420DD9009BB3
:1041900093F82830DBB283F00103DBB2002B04D0AC
:1041A00000990198FFF70AFE0EE04FF48E71019816
:1041B000FFF7AEFA009B5B69002B05D0009B5B69A3
:1041C00019460098FFF720FF4FF4A2710198FFF7FE
:1041D000B4FA0346002B1CD04FF4A2710198FFF7EC
:1041E00097FA009B93F82930002B03D00021019807
:1041F000FFF769FB009B9B69002B0AD0009B002204
:104200009A61009B596A009BDB681A460098FFF789
:10421000E4FE00BF0BB05DF804FB000008B50349E5
:104220000348FFF70BFF00BF08BD00BF8C0600204E
:104230000020004082B003468DF807309DF907301A
:10424000002B0CDB9DF8073003F01F0205499DF998
:1042500007305B09012000FA02F241F8232000BF79
:1042600002B0704700E100E082B003468DF80730ED
:104270009DF90730002B13DB9DF8073003F01F0278
:1042800009499DF907305B09012000FA02F2203349
:1042900041F82320BFF34F8F00BFBFF36F8F00BFE4
:1042A00000BF02B0704700BF00E100E082B00346EB
:1042B00000918DF807309DF90730002B0ADB009B39
:1042C000DAB20C499DF907305201D2B20B4483F89F
:1042D00000230BE0009BDAB207499DF8073003F09A
:1042E0000F03043B5201D2B20B441A7600BF02B056
:1042F000704700BF00E100E000ED00E082B00190F7
:10430000019B03F06043B3F1005F0CBF0123002366
:10431000DBB2184602B0704782B00190019B1B0BC4
:104320005BB2184602B0704700B583B003460A4638
:104330008DF8073013468DF806309DF80630072BB0
:1043400003D908496B20FDF752FB9DF806209DF923
:10435000073011461846FFF7A9FF00BF03B05DF80C
:1043600004FB00BF8060000000B583B003468DF8F9
:1043700007309DF907301846FFF75CFF00BF03B018
:104380005DF804FB00B583B003468DF807309DF956
:1043900007301846FFF768FF00BF03B05DF804FB65
:1043A00084B001900B46ADF80230BDF80230019A9E
:1043B000134400221A60BDF80230019A13441B68AE
:1043C0000393039B00BF04B0704782B001900B467B
:1043D000ADF80230BDF80230019A13441B68002B7F
:1043E00014BF01230023DBB2184602B0704782B02D
:1043F00001900091019BD3F80022009BDB431A40FF
:10440000019BC3F8002200BF02B0704782B0019048
:104410000091019B009AC3F8042300BF02B07047CB
:1044200082B001900091019B009AC3F8082300BF5D
:1044300002B0704784B00190019BD3F8803403939D
:10444000019B039AC3F88024039B184604B070476D
:1044500082B00190019B0822C3F8002500BF02B082
:10446000704782B00190019B0022C3F8002500BF75
:1044700002B0704784B0039002910192039B029AAC
:10448000C3F80C25039B019AC3F8142500BF04B0A0
:10449000704700B583B001904FF0FF324FF0FF310D
:1044A0000198FFF7E7FF00BF03B05DF804FB82B09F
:1044B0000190019BD3F80C35184602B0704782B0CA
:1044C0000190019BD3F81435184602B0704782B0B2
:1044D0000190019BD3F80835184602B0704782B0AE
:1044E0000190019BD3F81035184602B0704784B094
:1044F000039002910192039B029AC3F80825039B43
:10450000019AC3F8102500BF04B0704700B583B00E
:1045100001904FF0FF324FF0FF310198FFF7E7FFB6
:1045200000BF03B05DF804FB82B001900B468DF82C
:1045300003309DF80330019A134401221A6000BF32
:1045400002B0704782B001900B468DF803301346DD
:104550008DF802309DF803209DF802301343DBB242
:104560001A46019BC3F86C2500BF02B0704782B0A9
:1045700001900091019B009AC3F8242500BF02B06E
:10458000704784B0039002910192029A039BC3F892
:104590004425039B019AC3F8482500BF04B0704727
:1045A00082B00190019BD3F84C35184602B0704799
:1045B00082B00190019BD3F83C35184602B0704799
:1045C00000B583B00190019B1B68184600F096F877
:1045D0000346002B04D105494FF4F670FDF707FAA6
:1045E0004FF0A043184603B05DF804FBA460000040
:1045F00000B585B00190084611461A4603468DF86D
:1046000003300B468DF8023013468DF8013001ABB4
:104610001846FFF7D5FF03909DF803209DF8023060
:104620005B001A439DF801309B001A439DF8183037
:104630001B0242EA03019DF81C301B04019A194336
:10464000039B02F5E07243F8221000BF05B05DF84D
:1046500004FB00B585B00390002301930023009371
:104660000023012201210398FFF7C2FF00BF05B01C
:104670005DF804FB00B585B003900B468DF80B3058
:104680009DF80B30002201920022009200220021AE
:104690000398FFF7ADFF00BF05B05DF804FB00B560
:1046A00085B003900023019300230093002301228F
:1046B00000210398FFF79CFF00BF05B05DF804FBE5
:1046C00000B585B0019001AB1846FFF779FF039064
:1046D000019B012202FA03F31946039800F004F843
:1046E00000BF05B05DF804FB82B001900091019B12
:1046F000009AC3F8082500BF02B0704784B001904B
:10470000019B5B09029300230393029B002B03D1BF
:104710004FF0FF33039300BF019B03F01F0301938E
:10472000039A019B22FA03F303F00103002B14BF49
:1047300001230023DBB2184604B0704700B583B0F4
:1047400001900091009B1B68B3F1FF3F09D0009BD3
:104750001B681846FFF7B4FF009B1B681846FFF75D
:1047600078FF009B5B68B3F1FF3F05D0009B5B685F
:1047700000211846FFF77EFF019B1A68009B9B698A
:1047800019461046FFF7F3FE019B1868009B597D00
:10479000009B1B7D1A46FFF7D5FE019B1868009B06
:1047A0001968009B5B681A46FFF764FE009B1B7D3F
:1047B000012B22D1009B9B68B3F1FF3F05D0009BEA
:1047C0009B6800211846FFF755FF009BDB68B3F19B
:1047D000FF3F09D0009BDB681846FFF771FF009B85
:1047E000DB681846FFF735FF019B1868009BD96806
:1047F000009B9B681A46FFF77AFE00BF03B05DF886
:1048000004FB000000B583B001900B468DF8033027
:10481000019B1B684FF488711846FFF7C1FD019B8F
:104820001B684FF490711846FFF7BAFD019B1B6897
:104830004FF492711846FFF7B3FD019B1B684FF4CC
:10484000A2711846FFF7ACFD019B1B684FF4AC71D9
:104850001846FFF7A5FD019B1B680F491846FFF797
:10486000D5FD019B1B681846FFF756FD03461A4607
:104870009DF8033019461046FFF756FD019B1B6853
:104880001846FFF749FD03461846FFF76DFD00BFC8
:1048900003B05DF804FB00BF1003420000B583B015
:1048A0000190019B1B6808491846FFF7B9FD019B61
:1048B0001B681846FFF730FD03461846FFF762FDF8
:1048C00000BF03B05DF804FB1003420000B587B0E1
:1048D0000190019B1B681846FFF7E9FD0590019BBD
:1048E0001B681846FFF7EBFD0490019B1B681846F8
:1048F000FFF7EDFD0390019B1B681846FFF7EFFDE6
:104900000290019B1B681846FFF7C3FD019B1B68C3
:104910001846FFF7FBFD059BB3F1FF3F02D005985A
:10492000FFF7BDFE049BB3F1FF3F02D00498FFF7F1
:10493000B6FE029BB3F1FF3F02D00298FFF7AFFE35
:10494000039BB3F1FF3F02D00398FFF7A8FE00BF1F
:1049500007B05DF804FB000000B587B0039002913A
:104960000192029B002B03D12B49CF20FDF73FF88A
:10497000039B1B791A461346DB0013449B00274A0E
:104980001344049300230593049B93F82030002BD9
:1049900003D008230593059B3AE0039B1A68039B09
:1049A0001B7919461E4B53F8213019461046FEF765
:1049B000AFFD0346002B03D011230593059B27E091
:1049C00002990398FFF7BAFE049B019A5A60029B72
:1049D0001A69049B1A60049B5B68002B05D0029B3C
:1049E0001B7F19460398FFF70DFF039B1B681846B2
:1049F000FFF72EFD049B00229A61049B0022DA61DE
:104A0000049B00225A61049B012283F82020059B0D
:104A1000184607B05DF804FBD0600000B80600201F
:104A20003061000000B585B00190019B1B791A46EA
:104A30001346DB0013449B002A4A13440393019B53
:104A40001B680293039B5B68002B02D00198FFF761
:104A500025FF20210298FFF7CAFC039B9B69002BCE
:104A600008D04FF4A2710298FFF79AFC0421029833
:104A7000FFF75AFD4FF4AC710298FFF791FC0C213F
:104A80000298FFF751FD00BF4FF4AC710298FFF799
:104A90009CFC034683F00103DBB2002BF4D1039BA3
:104AA0009B69002B0AD04FF4A2710298FFF78DFC8E
:104AB000034683F00103DBB2002BE5D10298FFF738
:104AC000D0FC0198FFF702FF0298FEF75BFD039B05
:104AD000002283F82020039B00225A6000BF05B00B
:104AE0005DF804FBB806002000B589B00390029180
:104AF0000192039B1B791A461346DB0013449B006B
:104B0000564A13440593059B93F82030012B04D09B
:104B1000534940F25310FCF76AFF029B002B04D16B
:104B20004F494FF4AA70FCF762FF019B002B04D1A0
:104B30004B4940F25510FCF75AFF039B1B79002BA1
:104B400002D1019BFF2B04D945494FF4AB70FCF710
:104B50004EFF0298FFF7D2FB034683F00103DBB25E
:104B6000002B03D010230793079B73E0039800F0FA
:104B700079F80346002B03D011230793079B69E0C4
:104B8000059B019A5A61059B029A9A60002307933C
:104B9000039B1B684FF490711846FFF701FC039BC1
:104BA0001B684FF4AC711846FFF7FAFB039B1868BB
:104BB000059B9968059B5B691A46FFF7E2FC039B1E
:104BC0001B6808211846FFF7AFFC059B5B68002BAC
:104BD0003FD1039B1B684FF490711846FFF7F5FB1C
:104BE00003468DF81B30039B1B684FF4AC711846CD
:104BF000FFF7EBFB03468DF81A309DF81B3083F06E
:104C00000103DBB2002B06D09DF81A3083F00103BC
:104C1000DBB2002BDDD19DF81A30002B02D00F2320
:104C2000079313E0039B1B680C211846FFF77CFCDD
:104C300000BF039B1B684FF4AC711846FFF7C5FB20
:104C4000034683F00103DBB2002BF2D1059B002267
:104C50005A61079B184609B05DF804FBB8060020AE
:104C6000D060000082B00190019B1B791946084A70
:104C70000B46DB000B449B00134414331B68002BD2
:104C800014BF01230023DBB2184602B0704700BFF7
:104C9000B806002000B589B003900291019201236B
:104CA0008DF81030029B0693019B0593039B5B6874
:104CB000039A116804AA1046984700BF09B05DF82E
:104CC00004FB00B587B00190009100238DF80830F7
:104CD000009B0493019B9B680393019B00225A61F4
:104CE000019B5B68019A116802AA1046984700BFB1
:104CF00007B05DF804FB00B589B0019000914FF456
:104D000092710198FFF761FB0346002B22D04FF40C
:104D100092710198FFF744FB02238DF80830019847
:104D2000FFF788FB034605930198FFF741FC034614
:104D30000493009BDB680393009B00229A61009B15
:104D40000022DA61009B5B68009A116802AA104693
:104D500098473BE04FF488710198FFF736FB034614
:104D6000002B33D04FF488710198FFF719FB01989D
:104D7000FFF71EFC0790009B9B69079A9A4225D17A
:104D8000009BDB69002B17D0009BDB68069320217A
:104D90000198FFF72CFB009BDA69009B9A61009B4E
:104DA0001A69009BDA60009B0022DA61069A079973
:104DB0000098FFF76FFF09E0009B00229A61009BBB
:104DC000DB681A4607990098FFF764FF4FF4A27159
:104DD0000198FFF7FAFA0346002B18D04FF4A2719E
:104DE0000198FFF7DDFA009B9B69002B0FD0009B19
:104DF00000229A61009B0022DA610198FFF7D8FB3C
:104E00000146009BDB681A460098FFF743FF4FF40A
:104E100090710198FFF7D9FA0346002B14D04FF494
:104E200090710198FFF7BCFA0C210198FFF77CFB09
:104E3000009B5B69002B07D00198FFF7B1FB03468D
:104E400019460098FFF73DFF4FF4AC710198FFF74A
:104E5000BCFA0346002B10D04FF4AC710198FFF759
:104E60009FFA009B5B69002B07D00198FFF798FB26
:104E7000034619460098FFF724FF00BF09B05DF80C
:104E800004FB000008B503490348FFF734FF00BFE7
:104E900008BD00BFB80600200020004000B583B068
:104EA00001900091019B002B01D1054B01930099CA
:104EB0000198FEF70BF80346184603B05DF804FBB3
:104EC000AC61000000B585B001900091019B002B02
:104ED00003D115491E20FCF78AFD009B03F0010356
:104EE000002B1DD0019B1B68002B0CD10F48FEF737
:104EF00039F90290029B002B13D00B4A2E21029805
:104F0000FCF704FD0DE00198FEF72CF90390039BDC
:104F1000002B06D0044A35210398FCF7F7FC00E08B
:104F200000BF05B05DF804FB3C6100003461000087
:104F300000B585B0039002910192FCF73EFC019A06
:104F400002990398FCF796FC00BF05B05DF804FBDE
:104F500030B58BB00120FCF777FC00210020FBF777
:104F60003BFC0890089B002B04D0334A432108984F
:104F7000FCF7CCFCFBF7DAFB304A314BD31ADB08E9
:104F80001B0443F003032F491846FBF7F1FE0023EF
:104F9000ADF826300AE0BDF826302B4A2B4942F8FE
:104FA0002310BDF826300133ADF82630BDF8263089
:104FB000B3F5007FEFD3264B01AC1D460FCD0FC4D8
:104FC0002B682360FF238DF808301B238DF80730F2
:104FD0001A238DF8053019238DF804304FF08053D3
:104FE000049303238DF8143000238DF80E3001ABA9
:104FF00018491846FFF752FF0790079B002B04D073
:105000000D4A54210798FCF781FC00224FF40071EF
:105010001148FDF7B3FF0690069B002B05D0064A0A
:1050200055210698FCF772FC00BF00BFFBF7BCFEE1
:105030000346002BFAD1F8E73C610000D459000088
:10504000B459000084610000DC0600200A0005005D
:1050500098610000C54E000034610000BFF34F8F1F
:1050600000BF064BDB6803F4E0620449044B1343C2
:10507000CB60BFF34F8F00BF00BFFDE700ED00E046
:105080000400FA0582B01B4B1B68B3F1FF3F0AD145
:10509000194B1B68DBB20193184B1B681B0903F00B
:1050A0000F03009305E0134B1B680193144B1B681F
:1050B0000093019B062B19D1009B033B032B13D8B4
:1050C00001A252F823F000BFD9500000DD500000CB
:1050D000E1500000E5500000012308E0012306E054
:1050E000012304E0012302E0012300E0002318462D
:1050F00002B0704730010010E00F00F0E80F00F040
:105100003401001082B0154B1B68DBB20193144BC5
:105110001B681B0903F00F030093019B062B19D199
:10512000009B033B032B13D801A252F823F000BFCE
:105130004151000045510000495100004D5100000F
:10514000012308E0002306E0002304E0002302E03E
:10515000002300E00023184602B07047E00F00F083
:10516000E80F00F082B01B4B1B68B3F1FF3F0AD180
:10517000194B1B68DBB20193184B1B681B0903F02A
:105180000F03009305E0134B1B680193144B1B683E
:105190000093019B062B19D1009B033B032B13D8D3
:1051A00001A252F823F000BFB9510000BD51000028
:1051B000C1510000C5510000012308E0012306E0B1
:1051C000012304E0012302E0012300E0002318464C
:1051D00002B0704730010010E00F00F0E80F00F05F
:1051E0003401001082B0154B1B68DBB20193144BE5
:1051F0001B681B0903F00F030093019B062B19D1B9
:10520000009B033B032B13D801A252F823F000BFED
:105210002152000025520000295200002D520000AA
:10522000012308E0002306E0002304E0002302E05D
:10523000002300E00023184602B07047E00F00F0A2
:10524000E80F00F082B01B4B1B68B3F1FF3F0AD19F
:10525000194B1B68DBB20193184B1B681B0903F049
:105260000F03009305E0134B1B680193144B1B685D
:105270000093019B062B19D1009B033B032B13D8F2
:1052800001A252F823F000BF995200009D52000085
:10529000A1520000A5520000012308E0012306E00E
:1052A000012304E0012302E0012300E0002318466B
:1052B00002B0704730010010E00F00F0E80F00F07E
:1052C0003401001082B0154B1B68DBB20193144B04
:1052D0001B681B0903F00F030093019B062B19D1D8
:1052E000009B033B032B13D801A252F823F000BF0D
:1052F0000153000005530000095300000D53000046
:10530000012308E0002306E0002304E0002302E07C
:10531000002300E00023184602B07047E00F00F0C1
:10532000E80F00F082B0154B1B68DBB20193144B01
:105330001B681B0903F00F030093019B062B19D177
:10534000009B033B032B13D801A252F823F000BFAC
:105350006153000065530000695300006D53000065
:10536000012308E0002306E0002304E0002302E01C
:10537000002300E00023184602B07047E00F00F061
:10538000E80F00F082B01B4B1B68B3F1FF3F0AD15E
:10539000194B1B68DBB20193184B1B681B0903F008
:1053A0000F03009305E0134B1B680193144B1B681C
:1053B0000093019B062B19D1009B033B032B13D8B1
:1053C00001A252F823F000BFD9530000DD530000C2
:1053D000E1530000E5530000002308E0002306E04D
:1053E000012304E0012302E0012300E0002318462A
:1053F00002B0704730010010E00F00F0E80F00F03D
:105400003401001082B01B4B1B68B3F1FF3F0AD17F
:10541000194B1B68DBB20193184B1B681B0903F087
:105420000F03009305E0134B1B680193144B1B689B
:105430000093019B062B19D1009B033B032B13D830
:1054400001A252F823F000BF595400005D5400003F
:105450006154000065540000012308E0012306E0C8
:10546000012304E0012302E0012300E000231846A9
:1054700002B0704730010010E00F00F0E80F00F0BC
:105480003401001082B01B4B1B68B3F1FF3F0AD1FF
:10549000194B1B68DBB20193184B1B681B0903F007
:1054A0000F03009305E0134B1B680193144B1B681B
:1054B0000093019B062B19D1009B033B032B13D8B0
:1054C00001A252F823F000BFD9540000DD540000BF
:1054D000E1540000E5540000012308E0012306E048
:1054E000012304E0012302E0012300E00023184629
:1054F00002B0704730010010E00F00F0E80F00F03C
:105500003401001082B0134B1B680193124B1B68CF
:105510000093019B062B19D1009B033B032B13D84F
:1055200001A252F823F000BF395500003D5500009C
:105530004155000045550000002308E0002306E027
:10554000002304E0012302E0012300E000231846C9
:1055500002B070473001001034010010024B034AC2
:105560001A6000BF704700BF580000200090D003B1
:1055700008B5FFF787FD0346002B06D0A04B1B683C
:105580001B0AA04A03F01F031360FFF7BBFD03468D
:10559000002B02D09C4B9D4A1A60FFF7E3FD0346A7
:1055A000002B06D09A4B1B685B0B9A4A03F007034B
:1055B0001360FFF717FE0346002B05D0964BDB6800
:1055C000954A23F08073D360FFF73CFE0346002B1F
:1055D0000ED04FF080430022C3F80C214FF08043DF
:1055E0000022C3F810214FF080430022C3F8382571
:1055F000FFF768FE0346002B02D0884B03221A6097
:10560000FFF790FE0346002B0BD0854B05221A6056
:10561000844B01221A60844B00221A60834B3F2284
:105620001A60FFF7AFFE0346002B76D04FF0805391
:105630007F4AD3F80434C2F820354FF080537C4AB7
:10564000D3F80834C2F824354FF08053784AD3F8A1
:105650000C34C2F828354FF08053754AD3F8103413
:10566000C2F82C354FF08053714AD3F81434C2F885
:1056700030354FF080536E4AD3F81834C2F83435C1
:105680004FF080536A4AD3F81C34C2F840354FF0CB
:105690008053674AD3F82034C2F844354FF0805322
:1056A000634AD3F82434C2F848354FF08053604A37
:1056B000D3F82834C2F84C354FF080535C4AD3F805
:1056C0002C34C2F850354FF08053594AD3F8303457
:1056D000C2F854354FF08053554AD3F83434C2F8E9
:1056E00060354FF08053524AD3F83834C2F86435ED
:1056F0004FF080534E4AD3F83C34C2F868354FF02F
:1057000080534B4AD3F84034C2F86C354FF0805385
:10571000474AD3F84434C2F87035FFF773FE0346A6
:10572000002B05D0434B1B68434A03F04F03136023
:10573000FFF7A8FE0346002B0DD04FF08043D3F8AF
:10574000003403F00103002B05D04FF080436FF0CD
:105750000102C3F80024FFF7D5FE0346002B05D055
:10576000364B1B68354A43F480631360344BD3F8DF
:105770008830334A43F47003C2F88830BFF34F8F48
:1057800000BFBFF36F8F00BF4FF01023D3F800327C
:10579000002B05DB4FF01023D3F80432002B2BDA5B
:1057A000284B0122C3F8042500BF264BD3F8003450
:1057B000002BFAD04FF010231522C3F8002200BFAF
:1057C000204BD3F80034002BFAD04FF010231522D1
:1057D000C3F8042200BF1B4BD3F80034002BFAD0CF
:1057E000184B0022C3F8042500BF164BD3F8003431
:1057F000002BFAD0FFF732FCFFF7B0FE00BF08BD68
:10580000240300104035014074C007400DF0ADBACC
:10581000440200103C050040F0ED00E0A00500400F
:10582000105600408856004018560040145600405C
:1058300000C0004058020010E40E00403C17004039
:1058400000ED00E000E001407F2805D8034B185C24
:10585000034B5B5C1840704700207047CC61000030
:105860004C620000A0F16103192B98BF20387047EB
:10587000A0F14103192B98BF203070477F2805D82D
:10588000034B185C034B5B5C18407047002070476B
:10589000CC6100004C620000A0F16103192B98BF9D
:1058A00020387047A0F14103192B98BF2030704772
:1058B0007F299ABF017001206FF02E0070475AB106
:1058C0000A787F2A0AD800B1026000211960596065
:1058D000501A18BF01207047002070476FF02E004B
:1058E0007047000008B5034B5B689B681B689847CE
:1058F00008BD00BF5C00002008B50921FFF7F2FFDA
:1059000008BD844640EA010313F0030F18D1844612
:10591000202A0BD32DE9F007B1E8F807A0E8F80733
:10592000A2F12002202AF7D2BDE8F007042A07D30B
:1059300051F8043B40F8043BA2F10402042AF7D2D8
:10594000002A05D011F8013B00F8013B013AF9D1DA
:105950006046704700F1010110F0030F11D010F8FC
:10596000012B002A23D010F0030F0AD010F8012BCE
:10597000002A1CD010F0030F03D010F8012B002ACE
:1059800015D02DE970004FF001324FF0803350F800
:10599000044BA4EB020525EA04051D4000D1F6E7FF
:1059A000A0F1040070BC10F8012B002AFBD1A0EB81
:0459B000010070473B
:1059B4000C5F0000000000006C5F000000000000AD
:1059C4001860000000000000C86000000000000033
:0859D400285B00000000030342
:1059DC008C5A000000000000985A000014000020AF
:1059EC007C010020B4000020BC000020BC00002082
:0459FC00180000008F
:105A0000483A5C4E657874436C6F75645C476974A2
:105A10005C5A59424F5C70726F6A656374735C4480
:105A200069676974616C417564696F5C6E6F7264FB
:105A300069635C73646B5C636F6D706F6E656E74CD
:105A4000735C6C69627261726965735C6C6F675CD0
:105A50007372635C6E72665F6C6F675F6261636BCB
:105A6000656E645F756172742E630000FFFFFFFF57
:105A7000FFFFFFFFFFFFFFFFFFFFFFFF0000000032
:105A8000000000000000D60106010000C50600006D
:105A9000F9060000ED060000756172745F6C6F67B7
:105AA0005F6261636B656E6400000000483A5C4EA3
:105AB000657874436C6F75645C4769745C5A5942CD
:105AC0004F5C70726F6A656374735C446967697474
:105AD000616C417564696F5C6E6F726469635C735D
